:100000000C942A000C9447000C9447000C94470071
:100010000C9447000C9447000C9447000C94470044
:100020000C9447000C9447000C9447000C94470034
:100030000C9447000C9447000C9447000C94470024
:100040000C9447000C9447000C9447000C94470014
:100050000C94470011241FBECFE5D8E0DEBFCDBF12
:1000600013E0A0E6B0E0E2EBFFE302C005900D92E2
:10007000A838B107D9F713E0A8E8B3E001C01D9292
:10008000AD39B107E1F70E948B1B0C94D71F0C947C
:100090000000EF92FF920F931F937B018C0120E0F1
:1000A00030E040E05FE40E94490388238CF0C801FF
:1000B000B70120E030E040E05FE40E94C1010E940F
:1000C00007049B01AC01205030404040504806C01E
:1000D000C801B7010E9407049B01AC01B901CA0124
:1000E0001F910F91FF90EF900895A0E0B0E0EBE733
:1000F000F0E00C94801CDC012B01FA019C91923001
:1001000008F439C1EB018881823008F433C194309E
:1001100069F4843009F02FC111969C91119789815F
:10012000981709F428C1A0E6B2E025C1843009F48B
:1001300021C18230A9F4923009F01DC19A01AD01AC
:1001400088E0EA010990AE01E90109929E0181501F
:10015000C1F7E201898111969C918923818308C1AD
:10016000923009F407C112962D903C901397EB0141
:100170008A819B811496AD90BD90CD90DC901797AD
:10018000EC80FD800E811F819101281B390BB90184
:1001900037FF04C066277727621B730B6032710537
:1001A0000CF061C0121613066CF537014801062EDB
:1001B00004C096948794779467940A94D2F721E0C8
:1001C00030E040E050E004C0220F331F441F551FB1
:1001D0006A95D2F721503040404050402E213F21B7
:1001E00040235123211531054105510521F021E01E
:1001F00030E040E050E079018A01E628F72808293C
:1002000019293CC0232BD1F1260E371E350146019A
:10021000062E04C096948794779467940A94D2F734
:1002200021E030E040E050E004C0220F331F441FC3
:10023000551F6A95D2F721503040404050402A2146
:100240003B214C215D21211531054105510521F04E
:1002500021E030E040E050E059016A01A628B728CB
:10026000C828D9280BC0821593052CF01C01AA249C
:10027000BB24650103C0EE24FF24870111969C91E5
:10028000D20111968C91981709F445C0992339F041
:10029000A80197012A193B094C095D0906C0A6016E
:1002A00095012E193F09400B510B57FD08C01182D3
:1002B0003382228224833583468357831DC081E0A5
:1002C00081833382228288279927DC01821B930B4A
:1002D000A40BB50B84839583A683B7830DC0220F2F
:1002E000331F441F551F24833583468357838281E0
:1002F000938101979383828324813581468157813D
:10030000DA01C9010197A109B1098F5F9F4FAF4F72
:10031000BF4328F30BC0918333822282EA0CFB1C7B
:100320000C1D1D1DE482F5820683178383E0808304
:10033000248135814681578157FF1AC0C901AA27F8
:1003400097FDA095BA2F81709070A070B0705695EF
:10035000479537952795822B932BA42BB52B848318
:100360009583A683B7838281938101969383828349
:10037000DF0101C0D201CD01CDB7DEB7E2E10C94BF
:100380009C1CA0E2B0E0E7ECF1E00C948C1C6983CB
:100390007A838B839C832D833E834F835887E9E048
:1003A000EE2EF12CEC0EFD1ECE010196B7010E943F
:1003B0007F058E010F5E1F4FCE010596B8010E948A
:1003C0007F058A8991E089278A8BC701B801AE0130
:1003D000475E5F4F0E9475000E94AA04A096E6E067
:1003E0000C94A81CA0E2B0E0E8EFF1E00C948C1CA7
:1003F00069837A838B839C832D833E834F835887C5
:10040000F9E0EF2EF12CEC0EFD1ECE010196B701A6
:100410000E947F058E010F5E1F4FCE010596B80129
:100420000E947F05C701B801AE01475E5F4F0E9481
:1004300075000E94AA04A096E6E00C94A81CA0E215
:10044000B0E0E5E2F2E00C94801C69837A838B8350
:100450009C832D833E834F835887CE010196BE0136
:10046000675F7F4F0E947F05CE010596BE016F5EDC
:100470007F4F0E947F059985923088F0898982306C
:10048000C8F0943019F4823051F404C0843029F457
:10049000923081F480E692E0C6C0923049F420E0C8
:1004A0009A858A89981321E02A87CE010996BBC0D4
:1004B000823049F420E09A858A89981321E02A8BBA
:1004C000CE014196B0C02D843E844F8458886D88FB
:1004D0007E888F88988CEE24FF248701AA24BB2471
:1004E000650140E050E060E070E0E0E0F0E0C10174
:1004F00081709070892BE9F0E60CF71C081D191D1E
:100500009A01AB012A0D3B1D4C1D5D1D80E090E062
:10051000A0E0B0E0E614F7040805190520F481E036
:1005200090E0A0E0B0E0BA01A901480F591F6A1F8E
:100530007B1FAA0CBB1CCC1CDD1C97FE08C081E0F5
:1005400090E0A0E0B0E0A82AB92ACA2ADB2A3196B6
:10055000E032F10549F0660C771C881C991C569412
:10056000479437942794C3CFFA85EA892B893C892D
:100570008B859C85280F391F2E5F3F4F17C0CA01FE
:1005800081709070892B61F016950795F794E79428
:1005900080E090E0A0E0B0E8E82AF92A0A2B1B2BC3
:1005A00076956795579547952F5F3F4F77FDE7CF36
:1005B0000CC0440F551F661F771F17FD4160EE0CDE
:1005C000FF1C001F111F21503040403090E05907A0
:1005D00090E0690790E4790760F32B8F3C8FDB0193
:1005E000CA018F779070A070B07080349105A1051A
:1005F000B10561F447FD0AC0E114F10401051105DC
:1006000029F0405C5F4F6F4F7F4F40781A8EFE1786
:1006100011F081E08A8F4D8F5E8F6F8F78A383E01A
:10062000898FCE0149960E94AA04A096E2E10C941B
:100630009C1CA8E1B0E0EFE1F3E00C948C1C698312
:100640007A838B839C832D833E834F83588789E0F5
:10065000E82EF12CEC0EFD1ECE010196B7010E9492
:100660007F058E010F5E1F4FCE010596B8010E94D7
:100670007F058985823040F08989823028F0C70162
:10068000B8010E94F70501C08FEF6896E6E00C9470
:10069000A81CA8E1B0E0EFE4F3E00C948C1C6983A3
:1006A0007A838B839C832D833E834F83588789E095
:1006B000E82EF12CEC0EFD1ECE010196B7010E9432
:1006C0007F058E010F5E1F4FCE010596B8010E9477
:1006D0007F058985823040F08989823028F0C70102
:1006E000B8010E94F70501C08FEF6896E6E00C9410
:1006F000A81CA8E1B0E0EFE7F3E00C948C1C698340
:100700007A838B839C832D833E834F83588789E034
:10071000E82EF12CEC0EFD1ECE010196B7010E94D1
:100720007F058E010F5E1F4FCE010596B8010E9416
:100730007F058985823040F08989823028F0C701A1
:10074000B8010E94F70501C081E06896E6E00C94CC
:10075000A81CA8E0B0E0EFEAF3E00C94891C9B0130
:10076000AC0183E08983DA01C9018827B7FD83954D
:100770009927AA27BB27B82E211531054105510518
:1007800019F482E089833AC08823A9F0203080E000
:10079000380780E0480780E8580729F460E070E0F7
:1007A00080E09FEC30C0EE24FF248701E21AF30AB8
:1007B000040B150B02C079018A018EE1C82ED12CE1
:1007C000DC82CB82ED82FE820F831887C801B701DD
:1007D0000E945B0401971816190684F4082E04C0C1
:1007E000EE0CFF1C001F111F0A94D2F7ED82FE824F
:1007F0000F831887C81AD90ADC82CB82BA82CE014D
:1008000001960E94AA042896E9E00C94A51CACE08D
:10081000B0E0EDE0F4E00C94901C69837A838B8364
:100820009C83CE010196BE016B5F7F4F0E947F05C6
:100830008D81823061F1823050F1843021F48E81DB
:10084000882351F12EC02F81388537FD20C06E815D
:100850002F3131051CF06623F9F023C08EE190E0C2
:10086000821B930B29853A854B855C8504C0569580
:100870004795379527958A95D2F76623B1F050951D
:100880004095309521953F4F4F4F5F4F0EC020E070
:1008900030E040E050E009C02FEF3FEF4FEF5FE75F
:1008A00004C020E030E040E050E8B901CA012C96D5
:1008B000E2E00C94AC1CEF92FF920F931F937B012C
:1008C0008C0180E0E81680E0F80681E0080780E00F
:1008D000180788F48FEFE816F1040105110531F0CF
:1008E00028F088E090E0A0E0B0E017C080E090E061
:1008F000A0E0B0E012C080E0E81680E0F80680E0FA
:10090000080781E0180728F088E190E0A0E0B0E057
:1009100004C080E190E0A0E0B0E020E230E040E000
:1009200050E0281B390B4A0B5B0B04C0169507954A
:10093000F794E7948A95D2F7F701E859FD4F808143
:10094000281B310941095109C9011F910F91FF90DD
:10095000EF900895DF92EF92FF920F931F93FC01A7
:10096000E480F58006811781D1808081823048F44F
:1009700080E090E0A0E1B0E0E82AF92A0A2B1B2BE6
:10098000A5C0843009F49FC0823021F4EE24FF24F6
:10099000870105C0E114F1040105110519F4E0E037
:1009A000F0E096C0628173819FEF623879070CF0A6
:1009B0005BC022E83FEF261B370B2A3131052CF0B4
:1009C00020E030E040E050E02AC0B801A701022E4C
:1009D00004C076956795579547950A94D2F781E0BC
:1009E00090E0A0E0B0E004C0880F991FAA1FBB1FD1
:1009F0002A95D2F70197A109B1098E219F21A02341
:100A0000B1230097A105B10521F081E090E0A0E0BD
:100A1000B0E09A01AB01282B392B4A2B5B2BDA0172
:100A2000C9018F779070A070B07080349105A105D6
:100A3000B10539F427FF09C0205C3F4F4F4F5F4F8E
:100A400004C0215C3F4F4F4F5F4FE0E0F0E02030AB
:100A5000A0E03A07A0E04A07A0E45A0710F0E1E05E
:100A6000F0E079018A0127C06038710564F5FB0167
:100A7000E158FF4FD801C7018F779070A070B07018
:100A800080349105A105B10539F4E7FE0DC080E47D
:100A900090E0A0E0B0E004C08FE390E0A0E0B0E020
:100AA000E80EF91E0A1F1B1F17FF05C016950795B4
:100AB000F794E794319687E016950795F794E794B5
:100AC0008A95D1F705C0EE24FF248701EFEFF0E00F
:100AD0006E2F679566276795902F9F77D794DD24B3
:100AE000D7948E2F8695492F462B582F5D29B70115
:100AF000CA011F910F91FF90EF90DF900895FC01C4
:100B0000DB01408151812281622F6F7770E0221FCB
:100B10002227221F9381892F880F822B282F30E0D4
:100B2000991F9927991F11969C93119721153105AB
:100B3000A9F5411551056105710511F482E037C031
:100B400082E89FEF13969C938E9312979A01AB01C4
:100B500067E0220F331F441F551F6A95D1F783E0CA
:100B60008C930DC0220F331F441F551F12968D9179
:100B70009C911397019713969C938E931297203014
:100B800080E0380780E0480780E4580758F314965F
:100B90002D933D934D935C93179708952F3F310507
:100BA00079F4411551056105710519F484E08C93C0
:100BB000089564FF03C081E08C9312C01C9210C0A2
:100BC0002F57304013963C932E93129783E08C93CB
:100BD00087E0440F551F661F771F8A95D1F7706411
:100BE00014964D935D936D937C93179708951F937F
:100BF000DC01FB019C91923008F447C08081823077
:100C000008F443C0943051F411961C91843099F546
:100C10008181682F70E0611B71093FC0843021F031
:100C2000923031F48230B9F18181882389F12DC06D
:100C300011961C9111978230F1F081811817D9F427
:100C400012962D913C91139782819381821793077D
:100C500094F028173907BCF014968D919D910D9052
:100C6000BC91A02D248135814681578128173907F1
:100C70004A075B0718F4112341F00AC08217930753
:100C8000A407B50740F4112319F061E070E005C036
:100C90006FEF7FEF02C060E070E0CB011F9108951D
:100CA000DF93CF93CDB7DEB7EBE2F0E080E2808355
:100CB000EAE2F0E088E38083E0E4F0E086E8808325
:100CC000E9E2F0E083E38083E0E4F0E01082CF919A
:100CD000DF910895DF93CF930F92CDB7DEB789836D
:100CE000ECE2F0E089818083EBE2F0E080818295A4
:100CF00086958770882F90E0817090700097A1F39F
:100D00000F90CF91DF910895DF93CF93CDB7DEB7EA
:100D1000EBE2F0E080818823DCF7ECE2F0E0808118
:100D2000CF91DF910895DF93CF9300D00F92CDB78D
:100D3000DEB79B838A8319820EC08981282F30E019
:100D40008A819B81FC01E20FF31F80810E946A0669
:100D500089818F5F89838981282F30E08A819B81F7
:100D6000FC01E20FF31F8081882339F70F900F9069
:100D70000F90CF91DF910895DF93CF9300D0CDB73F
:100D8000DEB71A820BC08A81882F90E0FC01E757FA
:100D9000FC4F898180838A818F5F8A830E948406C9
:100DA000898389818D3079F78A81882F90E0FC01D1
:100DB000E757FC4F108289E893E00F900F90CF9196
:100DC000DF910895DF93CF9300D000D00F92CDB77D
:100DD000DEB789836A834B838981282F30E03D8386
:100DE0002C838C819D818234910509F448C02C812B
:100DF0003D812334310534F48C819D81813491050A
:100E000071F0CBC02C813D812334310509F467C0DA
:100E10008C819D818434910509F491C0BEC08B8181
:100E20008130A1F4AAE3B0E0EAE3F0E08081482F4A
:100E30008A81282F30E081E090E0022E02C0880FE6
:100E4000991F0A94E2F7842B8C93A7C08B81882387
:100E500009F0A3C0AAE3B0E0EAE3F0E08081482F04
:100E60008A81282F30E081E090E0022E02C0880FB6
:100E7000991F0A94E2F7809584238C938EC08B810E
:100E80008130A1F4A7E3B0E0E7E3F0E08081482FF0
:100E90008A81282F30E081E090E0022E02C0880F86
:100EA000991F0A94E2F7842B8C9377C08B81882357
:100EB00009F073C0A7E3B0E0E7E3F0E08081482FDA
:100EC0008A81282F30E081E090E0022E02C0880F56
:100ED000991F0A94E2F7809584238C935EC08B81DE
:100EE0008130A1F4A4E3B0E0E4E3F0E08081482F96
:100EF0008A81282F30E081E090E0022E02C0880F26
:100F0000991F0A94E2F7842B8C9347C08B81882326
:100F100009F043C0A4E3B0E0E4E3F0E08081482FAF
:100F20008A81282F30E081E090E0022E02C0880FF5
:100F3000991F0A94E2F7809584238C932EC08B81AD
:100F40008130A1F4A1E3B0E0E1E3F0E08081482F3B
:100F50008A81282F30E081E090E0022E02C0880FC5
:100F6000991F0A94E2F7842B8C9317C08B818823F6
:100F7000A1F4A1E3B0E0E1E3F0E08081482F8A81B1
:100F8000282F30E081E090E0022E02C0880F991FE8
:100F90000A94E2F7809584238C930F900F900F9022
:100FA0000F900F90CF91DF910895DF93CF9300D0F2
:100FB00000D00F92CDB7DEB789836A834B838981D6
:100FC000282F30E03D832C838C819D8182349105D4
:100FD00009F448C02C813D812334310534F48C81DF
:100FE0009D818134910571F0CBC02C813D812334EA
:100FF000310509F467C08C819D818434910509F421
:1010000091C0BEC08B818130A1F4ABE3B0E0EBE3D3
:10101000F0E08081482F8A81282F30E081E090E045
:10102000022E02C0880F991F0A94E2F7842B8C933A
:10103000A7C08B81882309F0A3C0ABE3B0E0EBE34A
:10104000F0E08081482F8A81282F30E081E090E015
:10105000022E02C0880F991F0A94E2F7809584231C
:101060008C938EC08B818130A1F4A8E3B0E0E8E3DB
:10107000F0E08081482F8A81282F30E081E090E0E5
:10108000022E02C0880F991F0A94E2F7842B8C93DA
:1010900077C08B81882309F073C0A8E3B0E0E8E350
:1010A000F0E08081482F8A81282F30E081E090E0B5
:1010B000022E02C0880F991F0A94E2F780958423BC
:1010C0008C935EC08B818130A1F4A5E3B0E0E5E3B1
:1010D000F0E08081482F8A81282F30E081E090E085
:1010E000022E02C0880F991F0A94E2F7842B8C937A
:1010F00047C08B81882309F043C0A5E3B0E0E5E356
:10110000F0E08081482F8A81282F30E081E090E054
:10111000022E02C0880F991F0A94E2F7809584235B
:101120008C932EC08B818130A1F4A2E3B0E0E2E386
:10113000F0E08081482F8A81282F30E081E090E024
:10114000022E02C0880F991F0A94E2F7842B8C9319
:1011500017C08B818823A1F4A2E3B0E0E2E3F0E0C2
:101160008081482F8A81282F30E081E090E0022E94
:1011700002C0880F991F0A94E2F7809584238C930C
:101180000F900F900F900F900F90CF91DF910895D7
:10119000DF93CF9300D000D0CDB7DEB789836A83C9
:1011A0008981282F30E03C832B838B819C81823482
:1011B000910551F12B813C812334310534F48B812D
:1011C0009C818134910561F05AC02B813C8123348C
:1011D000310571F18B819C8184349105E9F14FC017
:1011E000ABE3B0E0EBE3F0E08081482F8A81282F69
:1011F00030E081E090E0022E02C0880F991F0A942F
:10120000E2F784278C933BC0A8E3B0E0E8E3F0E08A
:101210008081482F8A81282F30E081E090E0022EE3
:1012200002C0880F991F0A94E2F784278C9327C085
:10123000A5E3B0E0E5E3F0E08081482F8A81282F24
:1012400030E081E090E0022E02C0880F991F0A94DE
:10125000E2F784278C9313C0A2E3B0E0E2E3F0E06E
:101260008081482F8A81282F30E081E090E0022E93
:1012700002C0880F991F0A94E2F784278C930F907D
:101280000F900F900F90CF91DF910895DF93CF9340
:1012900000D000D00F92CDB7DEB78A836B8319825E
:1012A0008A81282F30E03D832C834C815D8142343C
:1012B000510541F18C819D818334910534F42C8159
:1012C0003D812134310561F052C04C815D81433450
:1012D000510551F18C819D8184349105B9F147C04C
:1012E000E9E3F0E08081282F30E08B81882F90E0C7
:1012F000A90102C0559547958A95E2F7CA01817008
:10130000898335C0E6E3F0E08081282F30E08B81CF
:10131000882F90E0A90102C0559547958A95E2F77C
:10132000CA018170898323C0E3E3F0E08081282F24
:1013300030E08B81882F90E0A90102C05595479538
:101340008A95E2F7CA018170898311C0E0E3F0E079
:101350008081282F30E08B81882F90E0A90102C086
:10136000559547958A95E2F7CA01817089838981ED
:101370000F900F900F900F900F90CF91DF910895E5
:10138000DF93CF93CDB7DEB7EAE3F0E08FE780835A
:10139000E7E3F0E08DEF8083E4E3F0E083E1808336
:1013A000E1E3F0E01082EBE3F0E01082E8E3F0E04C
:1013B00084EF8083E5E3F0E01082E2E3F0E08CE389
:1013C000808381E0CF91DF910895DF93CF93CDB7F4
:1013D000DEB72E970FB6F894DEBF0FBECDBF8A835F
:1013E0006B834C8381E089838A81843008F00CC14F
:1013F0008B81883008F008C18C81813021F08C818C
:10140000882309F001C18A81282F30E03E872D878B
:101410008D859E858130910509F44FC02D853E85CF
:10142000223031052CF48D859E85009771F0EDC03A
:101430002D853E852230310509F477C08D859E8546
:101440008330910509F4A9C0E0C08C81282F30E0D9
:101450003C872B878B859C850097D1F02B853C851D
:101460002130310509F0D1C0AAE3B0E0EAE3F0E0B1
:101470008081482F8B81282F30E081E090E0022E80
:1014800002C0880F991F0A94E2F7842B8C93BDC089
:10149000AAE3B0E0EAE3F0E08081482F8B81282FB7
:1014A00030E081E090E0022E02C0880F991F0A947C
:1014B000E2F7809584238C93A8C08C81282F30E09C
:1014C0003A87298789859A850097D1F029853A85B9
:1014D0002130310509F099C0A7E3B0E0E7E3F0E07F
:1014E0008081482F8B81282F30E081E090E0022E10
:1014F00002C0880F991F0A94E2F7842B8C9385C051
:10150000A7E3B0E0E7E3F0E08081482F8B81282F4C
:1015100030E081E090E0022E02C0880F991F0A940B
:10152000E2F7809584238C9370C08C81282F30E063
:1015300038872F838F8198850097D1F02F81388548
:101540002130310509F061C0A4E3B0E0E4E3F0E04C
:101550008081482F8B81282F30E081E090E0022E9F
:1015600002C0880F991F0A94E2F7842B8C934DC018
:10157000A4E3B0E0E4E3F0E08081482F8B81282FE2
:1015800030E081E090E0022E02C0880F991F0A949B
:10159000E2F7809584238C9338C08C81282F30E02B
:1015A0003E832D838D819E810097C9F02D813E81E0
:1015B0002130310551F5A1E3B0E0E1E3F0E08081B5
:1015C000482F8B81282F30E081E090E0022E02C06E
:1015D000880F991F0A94E2F7842B8C9316C0A1E31D
:1015E000B0E0E1E3F0E08081482F8B81282F30E0EC
:1015F00081E090E0022E02C0880F991F0A94E2F762
:10160000809584238C9301C0198289812E960FB610
:10161000F894DEBF0FBECDBFCF91DF910895DF9369
:10162000CF93CDB7DEB72E970FB6F894DEBF0FBEBF
:10163000CDBF8A836B834C8381E089838A81843028
:1016400008F00CC18B81883008F008C18C81813092
:1016500021F08C81882309F001C18A81282F30E094
:101660003E872D878D859E858130910509F44FC079
:101670002D853E85223031052CF48D859E85009781
:1016800071F0EDC02D853E852230310509F477C01B
:101690008D859E858330910509F4A9C0E0C08C81B9
:1016A000282F30E03C872B878B859C850097D1F0D5
:1016B0002B853C852130310509F0D1C0ABE3B0E08A
:1016C000EBE3F0E08081482F8B81282F30E081E030
:1016D00090E0022E02C0880F991F0A94E2F7842B33
:1016E0008C93BDC0ABE3B0E0EBE3F0E08081482F2A
:1016F0008B81282F30E081E090E0022E02C0880F1D
:10170000991F0A94E2F7809584238C93A8C08C815A
:10171000282F30E03A87298789859A850097D1F06C
:1017200029853A852130310509F099C0A8E3B0E058
:10173000E8E3F0E08081482F8B81282F30E081E0C2
:1017400090E0022E02C0880F991F0A94E2F7842BC2
:101750008C9385C0A8E3B0E0E8E3F0E08081482FF7
:101760008B81282F30E081E090E0022E02C0880FAC
:10177000991F0A94E2F7809584238C9370C08C8122
:10178000282F30E038872F838F8198850097D1F0FC
:101790002F8138852130310509F061C0A5E3B0E023
:1017A000E5E3F0E08081482F8B81282F30E081E055
:1017B00090E0022E02C0880F991F0A94E2F7842B52
:1017C0008C934DC0A5E3B0E0E5E3F0E08081482FC5
:1017D0008B81282F30E081E090E0022E02C0880F3C
:1017E000991F0A94E2F7809584238C9338C08C81EA
:1017F000282F30E03E832D838D819E810097C9F094
:101800002D813E812130310551F5A2E3B0E0E2E3C4
:10181000F0E08081482F8B81282F30E081E090E03C
:10182000022E02C0880F991F0A94E2F7842B8C9332
:1018300016C0A2E3B0E0E2E3F0E08081482F8B81A4
:10184000282F30E081E090E0022E02C0880F991F1F
:101850000A94E2F7809584238C9301C019828981D0
:101860002E960FB6F894DEBF0FBECDBFCF91DF919D
:101870000895DF93CF93CDB7DEB727970FB6F894CF
:10188000DEBF0FBECDBF8A836B835D834C8381E057
:1018900089838A81843008F07AC08B81883008F08F
:1018A00076C08C819D81009709F471C08A81282FB0
:1018B00030E03F832E834E815F814130510559F1E5
:1018C0008E819F818230910534F42E813F812115D4
:1018D000310569F05DC04E815F814230510579F17B
:1018E0008E819F818330910509F43DC051C0E9E3A9
:1018F000F0E08081282F30E08B81882F90E0A901D3
:1019000002C0559547958A95E2F7CA018170EC812E
:10191000FD8180833DC0E6E3F0E08081282F30E048
:101920008B81882F90E0A90102C0559547958A9533
:10193000E2F7CA018170EC81FD81808329C0E3E375
:10194000F0E08081282F30E08B81882F90E0A90182
:1019500002C0559547958A95E2F7CA018170EC81DE
:10196000FD81808315C0E0E3F0E08081282F30E026
:101970008B81882F90E0A90102C0559547958A95E3
:10198000E2F7CA018170EC81FD81808301C0198278
:10199000898127960FB6F894DEBF0FBECDBFCF91D9
:1019A000DF910895DF93CF93CDB7DEB72D970FB6B4
:1019B000F894DEBF0FBECDBF8A836B8381E089833D
:1019C0008A81843008F084C08B81813021F08B8142
:1019D000882309F07DC08A81282F30E03D872C873D
:1019E0008C859D858130910571F12C853D85223056
:1019F00031052CF48C859D85009769F06AC02C8593
:101A00003D8522303105B1F18C859D85833091056E
:101A100009F447C05EC08B81282F30E03B872A87BE
:101A20008A859B85009759F02A853B8521303105B1
:101A300009F04FC0EAE3F0E08FEF80834AC0EAE3A9
:101A4000F0E0108246C08B81282F30E0398728874C
:101A500088859985009751F0288539852130310591
:101A6000C1F5E7E3F0E08FEF808333C0E7E3F0E018
:101A700010822FC08B81282F30E03F832E838E81F0
:101A80009F81009751F02E813F812130310509F56A
:101A9000E4E3F0E08FEF80831CC0E4E3F0E0108229
:101AA00018C08B81282F30E03D832C838C819D8151
:101AB000009751F02C813D812130310551F4E1E353
:101AC000F0E08FEF808305C0E1E3F0E0108201C019
:101AD000198289812D960FB6F894DEBF0FBECDBF57
:101AE000CF91DF910895DF93CF9300D000D00F9274
:101AF000CDB7DEB78A836B8381E089838A818430A6
:101B000098F58A81282F30E03D832C838C819D813C
:101B100081309105D1F02C813D81223031052CF4AA
:101B20008C819D81009761F020C02C813D81223005
:101B3000310581F08C819D818330910581F015C044
:101B4000EBE3F0E08B81808310C0E8E3F0E08B8171
:101B500080830BC0E5E3F0E08B81808306C0E2E385
:101B6000F0E08B81808301C0198289810F900F90F2
:101B70000F900F900F90CF91DF910895DF93CF9347
:101B800000D000D000D0CDB7DEB78A837C836B83D2
:101B900081E089838A81843008F03FC08B819C81F9
:101BA0000097D9F18A81282F30E03E832D838D81E3
:101BB0009E8181309105E1F02D813E8122303105F9
:101BC0002CF48D819E81009761F028C02D813E818B
:101BD00022303105A1F08D819E8183309105B1F0D5
:101BE0001DC0E9E3F0E08081EB81FC81808316C0B9
:101BF000E6E3F0E08081EB81FC8180830FC0E3E3CA
:101C0000F0E08081EB81FC81808308C0E0E3F0E0BC
:101C10008081EB81FC81808301C0198289812696B5
:101C20000FB6F894DEBF0FBECDBFCF91DF91089500
:101C3000DF93CF9300D000D00F92CDB7DEB78A8369
:101C40006B8381E089838A81843008F073C08B8143
:101C5000883008F06FC08A81282F30E03D832C83C4
:101C60008C819D818130910549F12C813D8122300B
:101C700031052CF48C819D81009761F05CC02C8132
:101C80003D812230310571F18C819D818330910538
:101C9000E9F151C0ABE3B0E0EBE3F0E08081482F25
:101CA0008B81282F30E081E090E0022E02C0880F67
:101CB000991F0A94E2F784278C933DC0A8E3B0E013
:101CC000E8E3F0E08081482F8B81282F30E081E02D
:101CD00090E0022E02C0880F991F0A94E2F7842731
:101CE0008C9329C0A5E3B0E0E5E3F0E08081482FC4
:101CF0008B81282F30E081E090E0022E02C0880F17
:101D0000991F0A94E2F784278C9315C0A2E3B0E0F0
:101D1000E2E3F0E08081482F8B81282F30E081E0E2
:101D200090E0022E02C0880F991F0A94E2F78427E0
:101D30008C9301C0198289810F900F900F900F90A2
:101D40000F90CF91DF910895DF93CF93CDB7DEB79A
:101D5000A7E2B0E0E7E2F0E080818F778C93A7E222
:101D6000B0E0E7E2F0E0808180648C93A7E2B0E02D
:101D7000E7E2F0E080818F7D8C93A7E2B0E0E7E2BC
:101D8000F0E080818C93A6E2B0E0E6E2F0E08081B2
:101D900080628C93A0E5B0E0E0E5F0E080818F7791
:101DA0008C93A0E5B0E0E0E5F0E080818F7B8C9340
:101DB000A0E5B0E0E0E5F0E080818F7D8C93A6E2C5
:101DC000B0E0E6E2F0E08081877F8C93A6E2B0E0AD
:101DD000E6E2F0E0808187608C93A6E2B0E0E6E284
:101DE000F0E0808180688C93CF91DF910895DF933C
:101DF000CF9300D0CDB7DEB71A821982A6E2B0E049
:101E0000E6E2F0E0808180648C93E6E2F0E080819D
:101E100082958F70882F90E0817090700097A9F361
:101E2000E4E2F0E08081282F30E0E5E2F0E080811C
:101E3000882F90E0982F8827822B932B9A83898371
:101E4000A6E2B0E0E6E2F0E0808180618C938981D7
:101E50009A810F900F90CF91DF910895DF93CF93E8
:101E600000D00F92CDB7DEB78B831A821982A7E21A
:101E7000B0E0E7E2F0E08081807E8C93A7E2B0E002
:101E8000E7E2F0E090818B81892B8C93A6E2B0E0B1
:101E9000E6E2F0E0808180648C93E6E2F0E080810D
:101EA00082958F70882F90E0817090700097A9F3D1
:101EB000E4E2F0E08081282F30E0E5E2F0E080818C
:101EC000882F90E0982F8827822B932B9A838983E1
:101ED000A6E2B0E0E6E2F0E0808180618C93898147
:101EE0009A810F900F900F90CF91DF910895DF931B
:101EF000CF93CDB7DEB7A6E2B0E0E6E2F0E08081B6
:101F000080688C93CF91DF910895DF93CF93CDB705
:101F1000DEB7A6E2B0E0E6E2F0E080818F778C9356
:101F2000CF91DF910895DF93CF93CDB7DEB76C9754
:101F30000FB6F894DEBF0FBECDBFE1E3F0E08FEF48
:101F40008083E7E3F0E08FEF808380E090E0A0EA19
:101F5000B1E4898F9A8FAB8FBC8F698D7A8D8B8D11
:101F60009C8D20E030E04AEF54E40E941F02DC0127
:101F7000CB018D8B9E8BAF8BB88F6D897E898F89BE
:101F8000988D20E030E040E85FE30E9479038823E9
:101F90002CF481E090E09C8B8B8B3FC06D897E8917
:101FA0008F89988D20E03FEF4FE757E40E94190397
:101FB00018164CF5698D7A8D8B8D9C8D20E030E064
:101FC00040E251E40E941F02DC01CB01BC01CD01C3
:101FD0000E944900DC01CB019C8B8B8B0FC088ECED
:101FE00090E09A8B898B89899A890197F1F79A8B6E
:101FF000898B8B899C8901979C8B8B8B8B899C8986
:10200000009769F714C06D897E898F89988D0E9429
:102010004900DC01CB019C8B8B8B8B899C89988B35
:102020008F878F8598890197F1F7988B8F8788E341
:102030000E94A1108CE00E94A11086E00E94A110D5
:1020400081E00E94A11080E090E0A0E0B0E48B87E6
:102050009C87AD87BE876B857C858D859E8520E0BE
:1020600030E04AEF54E40E941F02DC01CB018F8371
:102070009887A987BA876F81788589859A8520E0B6
:1020800030E040E85FE30E94790388232CF481E08C
:1020900090E09E838D833FC06F81788589859A8586
:1020A00020E03FEF4FE757E40E94190318164CF564
:1020B0006B857C858D859E8520E030E040E251E493
:1020C0000E941F02DC01CB01BC01CD010E9449002E
:1020D000DC01CB019E838D830FC088EC90E09C8354
:1020E0008B838B819C810197F1F79C838B838D81FE
:1020F0009E8101979E838D838D819E81009769F7D4
:1021000014C06F81788589859A850E944900DC0119
:10211000CB019E838D838D819E819A838983898162
:102120009A810197F1F79A83898380E80E94A11030
:102130006C960FB6F894DEBF0FBECDBFCF91DF9186
:102140000895DF93CF93CDB7DEB76D970FB6F894B0
:10215000DEBF0FBECDBF8D8FE8E3F0E08D8D8083B5
:10216000A2E3B0E0E2E3F0E080818B7F8C93A2E316
:10217000B0E0E2E3F0E08081877F8C93A2E3B0E0FF
:10218000E2E3F0E0808180618C9380E090E0A0E861
:10219000BFE3898F9A8FAB8FBC8F698D7A8D8B8DC2
:1021A0009C8D20E030E04AEF54E40E941F02DC01E5
:1021B000CB018D8B9E8BAF8BB88F6D897E898F897C
:1021C000988D20E030E040E85FE30E9479038823A7
:1021D0002CF481E090E09C8B8B8B3FC06D897E89D5
:1021E0008F89988D20E03FEF4FE757E40E94190355
:1021F00018164CF5698D7A8D8B8D9C8D20E030E022
:1022000040E251E40E941F02DC01CB01BC01CD0180
:102210000E944900DC01CB019C8B8B8B0FC088ECAA
:1022200090E09A8B898B89899A890197F1F79A8B2B
:10223000898B8B899C8901979C8B8B8B8B899C8943
:10224000009769F714C06D897E898F89988D0E94E7
:102250004900DC01CB019C8B8B8B8B899C89988BF3
:102260008F878F8598890197F1F7988B8F87A2E3E5
:10227000B0E0E2E3F0E080818F7E8C9380E090E03C
:10228000A0EAB0E48B879C87AD87BE876B857C8591
:102290008D859E8520E030E04AEF54E40E941F02C5
:1022A000DC01CB018F839887A987BA876F817885F6
:1022B00089859A8520E030E040E85FE30E94790359
:1022C00088232CF481E090E09E838D833FC06F8152
:1022D000788589859A8520E03FEF4FE757E40E9493
:1022E000190318164CF56B857C858D859E8520E03D
:1022F00030E040E251E40E941F02DC01CB01BC014E
:10230000CD010E944900DC01CB019E838D830FC06B
:1023100088EC90E09C838B838B819C810197F1F703
:102320009C838B838D819E8101979E838D838D817C
:102330009E81009769F714C06F81788589859A8599
:102340000E944900DC01CB019E838D838D819E819B
:102350009A83898389819A810197F1F79A83898386
:102360006D960FB6F894DEBF0FBECDBFCF91DF9153
:102370000895DF93CF93CDB7DEB76D970FB6F8947E
:10238000DEBF0FBECDBF8D8FE8E3F0E08D8D808383
:10239000A2E3B0E0E2E3F0E0808184608C93A2E30A
:1023A000B0E0E2E3F0E08081877F8C93A2E3B0E0CD
:1023B000E2E3F0E0808180618C9380E090E0A0E82F
:1023C000BFE3898F9A8FAB8FBC8F698D7A8D8B8D90
:1023D0009C8D20E030E04AEF54E40E941F02DC01B3
:1023E000CB018D8B9E8BAF8BB88F6D897E898F894A
:1023F000988D20E030E040E85FE30E947903882375
:102400002CF481E090E09C8B8B8B3FC06D897E89A2
:102410008F89988D20E03FEF4FE757E40E94190322
:1024200018164CF5698D7A8D8B8D9C8D20E030E0EF
:1024300040E251E40E941F02DC01CB01BC01CD014E
:102440000E944900DC01CB019C8B8B8B0FC088EC78
:1024500090E09A8B898B89899A890197F1F79A8BF9
:10246000898B8B899C8901979C8B8B8B8B899C8911
:10247000009769F714C06D897E898F89988D0E94B5
:102480004900DC01CB019C8B8B8B8B899C89988BC1
:102490008F878F8598890197F1F7988B8F87A2E3B3
:1024A000B0E0E2E3F0E080818F7E8C9380E090E00A
:1024B000A0EAB0E48B879C87AD87BE876B857C855F
:1024C0008D859E8520E030E04AEF54E40E941F0293
:1024D000DC01CB018F839887A987BA876F817885C4
:1024E00089859A8520E030E040E85FE30E94790327
:1024F00088232CF481E090E09E838D833FC06F8120
:10250000788589859A8520E03FEF4FE757E40E9460
:10251000190318164CF56B857C858D859E8520E00A
:1025200030E040E251E40E941F02DC01CB01BC011B
:10253000CD010E944900DC01CB019E838D830FC039
:1025400088EC90E09C838B838B819C810197F1F7D1
:102550009C838B838D819E8101979E838D838D814A
:102560009E81009769F714C06F81788589859A8567
:102570000E944900DC01CB019E838D838D819E8169
:102580009A83898389819A810197F1F79A83898354
:102590006D960FB6F894DEBF0FBECDBFCF91DF9121
:1025A0000895DF93CF9300D00F92CDB7DEB79B8312
:1025B0008A83198219820EC08981282F30E08A818E
:1025C0009B81FC01E20FF31F80810E94B911898178
:1025D0008F5F89838981282F30E08A819B81FC016C
:1025E000E20FF31F8081882339F70F900F900F902F
:1025F000CF91DF910895DF93CF9300D000D0CDB776
:10260000DEB78B836C8380E8898380EC8A838B813F
:10261000282F30E0CE010196FC01E20FF31F9081DC
:102620008C81890F0E94A1100F900F900F900F9036
:10263000CF91DF910895DF93CF9300D000D0CDB735
:10264000DEB79B838A836C8319828C81882F90E00C
:102650000896880F991F880F991F880F991F0E944D
:10266000A11019820EC08981282F30E08A819B81B8
:10267000FC01E20FF31F80810E94B91189818F5FF5
:1026800089838981883078F30F900F900F900F9095
:10269000CF91DF910895DF93CF93CDB7DEB781E07F
:1026A0000E94A11080E80E94A110CF91DF910895AF
:1026B000DF93CF930F92CDB7DEB7198233C08981F4
:1026C000882F90E0FC01E058FC4F908182E0692F58
:1026D00041E00E94E5098981882F90E0FC01E058E3
:1026E000FC4F908182E0692F41E00E940F0B8981AD
:1026F000882F90E0FC01EC57FC4F908182E0692F1D
:1027000040E00E94E5098981882F90E0FC01EC57A8
:10271000FC4F908182E0692F41E00E940F0B89817C
:102720008F5F89838981843050F281E00F90CF914F
:10273000DF910895DF93CF93CDB7DEB765970FB6DE
:10274000F894DEBF0FBECDBF9D8B8C8B81E08A8B52
:102750001B8A1F868C899D89009709F4F0C0EC893B
:10276000FD898FEF8083198AE5C08989882F90E0E1
:10277000FC01E058FC4F908182E0692F40E00E940C
:102780000F0B188AC1C08889882F90E0FC01EC5794
:10279000FC4F90819E012D5E3F4F82E0692FA90181
:1027A0000E94390C8B89882309F0ABC080E090E04F
:1027B000A0EAB1E48B879C87AD87BE876B857C855B
:1027C0008D859E8520E030E04AE755E40E941F0297
:1027D000DC01CB018F839887A987BA876F817885C1
:1027E00089859A8520E030E040E85FE30E94790324
:1027F00088232CF481E090E09E838D833FC06F811D
:10280000788589859A8520E03FEF4FE757E40E945D
:10281000190318164CF56B857C858D859E8520E007
:1028200030E040E251E40E941F02DC01CB01BC0118
:10283000CD010E944900DC01CB019E838D830FC036
:1028400080E991E09C838B838B819C810197F1F7D8
:102850009C838B838D819E8101979E838D838D8147
:102860009E81009769F714C06F81788589859A8564
:102870000E944900DC01CB019E838D838D819E8166
:102880009A83898389819A810197F1F79A83898351
:102890008889882F90E0FC01EC57FC4F90819E01C5
:1028A0002D5E3F4F82E0692FA9010E94390C0FC0B5
:1028B0008889882F90E0FC01EC57FC4F90819E01A5
:1028C0002D5E3F4F82E0692FA9010E94390C8B8950
:1028D000882371F38989482F50E08889282F30E0B8
:1028E000CA01880F991F880F991F820F931FFC013F
:1028F000E059FC4F8081EC89FD89808381E08F87DE
:1029000007C088898F5F888B8889843008F43BCF23
:102910008989882F90E0FC01E058FC4F908182E08B
:10292000692F41E00E940F0B8F85882349F4898924
:102930008F5F898B8989843008F417CF01C01A8A88
:102940008A8965960FB6F894DEBF0FBECDBFCF91D2
:10295000DF910895DF93CF93CDB7DEB769970FB6B8
:10296000F894DEBF0FBECDBF9B8B8A8B6C8B5E8BCA
:102970004D8B2F8B1F868D899E890E94930680E642
:1029800090E00E94930629C0CE0140960E949A13BF
:10299000813019F5888999898F3F9105F1F08F89E8
:1029A000882329F4CE014096998F888F04C083E64E
:1029B00090E0998F888F888D998D0E9493068F85DE
:1029C000282F30E08A899B89FC01E20FF31F888958
:1029D000998980838F858F5F8F879F858C899817D2
:1029E00098F280E690E00E9493068F85282F30E0D1
:1029F0008A899B89FC01E20FF31F108280E090E03E
:102A0000A8E4B3E48B879C87AD87BE876B857C8504
:102A10008D859E8520E030E04AEF54E40E941F023D
:102A2000DC01CB018F839887A987BA876F8178856E
:102A300089859A8520E030E040E85FE30E947903D1
:102A400088232CF481E090E09E838D833FC06F81CA
:102A5000788589859A8520E03FEF4FE757E40E940B
:102A6000190318164CF56B857C858D859E8520E0B5
:102A700030E040E251E40E941F02DC01CB01BC01C6
:102A8000CD010E944900DC01CB019E838D830FC0E4
:102A900088EC90E09C838B838B819C810197F1F77C
:102AA0009C838B838D819E8101979E838D838D81F5
:102AB0009E81009769F714C06F81788589859A8512
:102AC0000E944900DC01CB019E838D838D819E8114
:102AD0009A83898389819A810197F1F79A838983FF
:102AE00069960FB6F894DEBF0FBECDBFCF91DF91D0
:102AF0000895DF93CF93CDB7DEB7AC970FB6F894B8
:102B0000DEBF0FBECDBF98A78FA37AA769A75CA72A
:102B10004BA785E690E098A38F8F89E690E09AA373
:102B200089A385E690E09CA38BA389E690E09EA311
:102B30008DA31E8E1D8E38C08D8D882F90E09C0138
:102B4000220F331FCE010196820F931FFC017E9648
:102B5000208131818FA198A5B9010E94B71C0097EF
:102B600001F58D8D882F90E09C01220F331FCE013F
:102B70000196820F931FFC01B2962081318189A5B5
:102B80009AA5B9010E94B71C009759F48D8D882F22
:102B900090E001960E94DC160E94021981E08E8F5F
:102BA00006C08D8D8F5F8D8F8D8D823028F28E8D3A
:102BB000882309F086C0EBA5FCA580818F5FEBA57B
:102BC000FCA58083EBA5FCA58081882F90E00E9466
:102BD00093068DE690E00E94930680E090E0A8ECDA
:102BE000B2E4898F9A8FAB8FBC8F698D7A8D8B8D74
:102BF0009C8D20E030E04AEF54E40E941F02DC018B
:102C0000CB018D8B9E8BAF8BB88F6D897E898F8921
:102C1000988D20E030E040E85FE30E94790388234C
:102C20002CF481E090E09C8B8B8B3FC06D897E897A
:102C30008F89988D20E03FEF4FE757E40E941903FA
:102C400018164CF5698D7A8D8B8D9C8D20E030E0C7
:102C500040E251E40E941F02DC01CB01BC01CD0126
:102C60000E944900DC01CB019C8B8B8B0FC088EC50
:102C700090E09A8B898B89899A890197F1F79A8BD1
:102C8000898B8B899C8901979C8B8B8B8B899C89E9
:102C9000009769F714C06D897E898F89988D0E948D
:102CA0004900DC01CB019C8B8B8B8B899C89988B99
:102CB0008F878F8598890197F1F7988B8F870E946E
:102CC000981B80E090E0AAEFB3E48B879C87AD87E8
:102CD000BE876B857C858D859E8520E030E04AEF40
:102CE00054E40E941F02DC01CB018F839887A987DF
:102CF000BA876F81788589859A8520E030E040E841
:102D00005FE30E94790388232CF481E090E09E83A6
:102D10008D833FC06F81788589859A8520E03FEF5C
:102D20004FE757E40E94190318164CF56B857C8514
:102D30008D859E8520E030E040E251E40E941F0234
:102D4000DC01CB01BC01CD010E944900DC01CB01BB
:102D50009E838D830FC088EC90E09C838B838B8156
:102D60009C810197F1F79C838B838D819E810197D4
:102D70009E838D838D819E81009769F714C06F813A
:102D8000788589859A850E944900DC01CB019E8364
:102D90008D838D819E819A83898389819A81019710
:102DA000F1F79A838983AC960FB6F894DEBF0FBE15
:102DB000CDBFCF91DF910895DF93CF93CDB7DEB72D
:102DC0006F970FB6F894DEBF0FBECDBF8F8F8CE725
:102DD00090E00E9493068F8D282F30E08DB79EB72C
:102DE00008970FB6F8949EBF0FBE8DBFEDB7FEB724
:102DF0003196CE010F969183808380E190E093839A
:102E000082838FE890E095838483378326830E94B2
:102E1000E11C8DB79EB708960FB6F8949EBF0FBE03
:102E20008DBFCE010F960E94930680E690E00E942F
:102E3000930680E090E0AAEFB3E48B879C87AD8790
:102E4000BE876B857C858D859E8520E030E04AEFCE
:102E500054E40E941F02DC01CB018F839887A9876D
:102E6000BA876F81788589859A8520E030E040E8CF
:102E70005FE30E94790388232CF481E090E09E8335
:102E80008D833FC06F81788589859A8520E03FEFEB
:102E90004FE757E40E94190318164CF56B857C85A3
:102EA0008D859E8520E030E040E251E40E941F02C3
:102EB000DC01CB01BC01CD010E944900DC01CB014A
:102EC0009E838D830FC088EC90E09C838B838B81E5
:102ED0009C810197F1F79C838B838D819E81019763
:102EE0009E838D838D819E81009769F714C06F81C9
:102EF000788589859A850E944900DC01CB019E83F3
:102F00008D838D819E819A83898389819A8101979E
:102F1000F1F79A8389836F960FB6F894DEBF0FBEE0
:102F2000CDBFCF91DF910895DF93CF93CDB7DEB7BB
:102F300029970FB6F894DEBF0FBECDBF8D838DE904
:102F400090E00E94930681E08B8319828D81282F67
:102F500030E039872887888599858130910531F05F
:102F6000288539852230310519F005C01A8264C0E0
:102F700085E08A8361C083EB90E00E94930660C085
:102F8000CE0104960E949A13813009F055C08C81BD
:102F90008F3F09F451C08C81282F30E03F832E836E
:102FA0008E819F818233910569F12E813F81233487
:102FB000310531F08E819F818133910571F038C0E8
:102FC0008981882321F081E46A810E94C8088D816B
:102FD000882F90E00E943C192FC089818F5F8983E0
:102FE00081E46A8141E00E94D5078D81882F90E0BD
:102FF00028EC30E0B9010E9429188BEC90E00E9487
:1030000093061AC089818F5F898381E46A8140E0D9
:103010000E94D5078D81882F90E023ED30E0B90123
:103020000E94291887ED90E00E9493061B8204C03D
:1030300080EE90E00E9493068B81882309F0A0CF58
:1030400029960FB6F894DEBF0FBECDBFCF91DF91AA
:103050000895DF93CF9300D00F92CDB7DEB7898369
:103060007B836A8381E090E060E070E00E94FB1265
:103070008EEF90E00E94D1128981882F90E00E940B
:10308000D11283E091E00E94D1128A819B810E943B
:10309000D1120F900F900F90CF91DF910895DF9391
:1030A000CF93CDB7DEB729970FB6F894DEBF0FBE2A
:1030B000CDBF8D8385E091E00E9493061A8281E066
:1030C00089838D81282F30E03987288788859985E5
:1030D0008130910531F0288539852230310521F084
:1030E00006C081E08B8364C086E08B8361C08FE182
:1030F00091E00E94930660C0CE0104960E949A134C
:10310000813009F055C08C818F3F09F451C08C810A
:10311000282F30E03F832E838E819F81823391055B
:1031200071F12E813F812334310531F08E819F81F1
:103130008133910579F038C08A81882321F081E4B8
:103140006B810E94C8088D81882F90E00E943C19F5
:1031500019822EC08A818F5F8A8381E46B8141E06E
:103160000E94D5078D81882F90E024E331E0B901DA
:103170000E94E51887E391E00E94930619C08A81B6
:103180008F5F8A8381E46B8140E00E94D5078D8147
:10319000882F90E021E431E0B9010E94E51885E430
:1031A00091E00E94930604C080E591E00E9493069E
:1031B0008981882309F0A0CF29960FB6F894DEBF45
:1031C0000FBECDBFCF91DF910895DF93CF9300D095
:1031D0000F92CDB7DEB789837B836A8381E090E06D
:1031E00060E070E00E94FB128EE691E00E94D11236
:1031F0008A819B810E94D1120F900F900F90CF91E6
:10320000DF910895DF93CF9300D00F92CDB7DEB753
:1032100085E791E00E94930686E891E00E9493067C
:1032200084E991E00E949306CE0101960E949A13D0
:103230008130D1F789818F3FB9F38981282F30E020
:103240003B832A838A819B818133910531F02A81D6
:103250003B812233310531F00AC081E090E00E94C9
:103260003C19E2CF82E090E00E943C19DDCF82EA77
:1032700091E00E949306D8CFDF93CF9300D000D087
:1032800000D0CDB7DEB78C838C81882F90E00E9470
:10329000B41981EC91E00E94930683ED91E00E94C5
:1032A00093061A82198253C0CE0103960E949A1384
:1032B000813009F04CC08B818F3F09F448C08B816D
:1032C000282F30E03E832D838D819E8183339105AD
:1032D00079F12D813E81243331055CF48D819E810D
:1032E00081339105B9F02D813E8122333105D1F032
:1032F0002AC08D819E818433910501F12D813E810B
:103300002334310501F50E944B130E94021981E01C
:1033100089831DC08C81882F90E060E070E00E945E
:10332000271A15C08C81882F90E00E944F180FC07B
:103330008C81882F90E00E94941709C00E94021986
:1033400081E0898304C082EA91E00E94930689812A
:10335000882309F4A9CF26960FB6F894DEBF0FBED6
:10336000CDBFCF91DF910895DF93CF93CDB7DEB777
:103370002B970FB6F894DEBF0FBECDBF8B870E9490
:103380004B138B85882F90E09E012F5F3F4FB90133
:103390000E94E71985EE91E00E94D112CE010196BC
:1033A0000E94D11285EE91E00E949306CE01019613
:1033B0000E9493068BEE91E00E9493062B960FB627
:1033C000F894DEBF0FBECDBFCF91DF910895DF939C
:1033D000CF9300D00F92CDB7DEB789837B836A830A
:1033E0008981282F30E000D000D000D0EDB7FEB7A3
:1033F00031968A819B819183808387EF91E09383CB
:103400008283358324830E94121D8DB79EB7069652
:103410000FB6F8949EBF0FBE8DBF0F900F900F9008
:10342000CF91DF910895DF93CF9300D0CDB7DEB772
:1034300089838981813019F482E08A8302C087E020
:103440008A838A810F900F90CF91DF910895DF9347
:10345000CF93CDB7DEB727970FB6F894DEBF0FBE78
:10346000CDBF8E836F831C824EC0CE0105960E9415
:103470009A138130A1F48D818F3F89F08D8183343F
:1034800051F40E944B138E81882F90E00E943C19CA
:1034900081E08C8304C08AEF91E00E9493068E81C4
:1034A0000E94131A89838981882F90E00E942E0F31
:1034B000AA2797FDA095BA2FBC01CD010E94A903B0
:1034C000DC01CB01BC01CD0120E030E040E05FE356
:1034D0000E941F02DC01CB01BC01CD010E9449000A
:1034E000DC01CB019B838A838F81882321F48A812D
:1034F0009B810E94901A8E81882F90E02A813B81C7
:10350000B9010E94331B8C81882309F4AECF279622
:103510000FB6F894DEBF0FBECDBFCF91DF910895F7
:10352000DF93CF93CDB7DEB76A970FB6F894DEBFBF
:103530000FBECDBF9A8F898F898D9A8D9E01215F95
:103540003F4FB9014AE050E00E94C01C81E090E08A
:1035500060E070E00E94FB1289E192E00E94D112CB
:10356000CE010F960E94D11280E292E00E94D11209
:1035700080E090E0AAEFB3E48B879C87AD87BE879D
:103580006B857C858D859E8520E030E04AEF54E494
:103590000E941F02DC01CB018F839887A987BA871D
:1035A0006F81788589859A8520E030E040E85FE387
:1035B0000E94790388232CF481E090E09E838D8320
:1035C0003FC06F81788589859A8520E03FEF4FE77E
:1035D00057E40E94190318164CF56B857C858D8580
:1035E0009E8520E030E040E251E40E941F02DC01B1
:1035F000CB01BC01CD010E944900DC01CB019E83BF
:103600008D830FC088EC90E09C838B838B819C81A1
:103610000197F1F79C838B838D819E8101979E8317
:103620008D838D819E81009769F714C06F817885A5
:1036300089859A850E944900DC01CB019E838D8398
:103640008D819E819A83898389819A810197F1F77F
:103650009A8389836A960FB6F894DEBF0FBECDBFFA
:10366000CF91DF910895DF93CF9300D000D00F92D8
:10367000CDB7DEB78B837D836C8381E464E041E06A
:103680000E94D50784E465E041E00E94D50781E40B
:1036900064E00E9446098A8384E466E00E94460949
:1036A00089838B81813071F48A81882329F08C8110
:1036B0009D818F31910534F081E463E041E00E9407
:1036C000D50708C08B81813029F481E463E040E0B4
:1036D0000E94D5078B81823071F48981882329F07B
:1036E0008C819D818F31910534F084E465E041E067
:1036F0000E94D50708C08B81823029F484E465E0FC
:1037000040E00E94D5070F900F900F900F900F9000
:10371000CF91DF910895DF93CF93CDB7DEB70E94AD
:10372000491C0E94981B80E090E0CF91DF910895A2
:10373000DF93CF93CDB7DEB72E970FB6F894DEBFE9
:103740000FBECDBF80918803833028F083E292E0E2
:103750000E94930695C08EE392E00E94930680E05B
:1037600090E0AAEFB3E48B879C87AD87BE876B851B
:103770007C858D859E8520E030E04AEF54E40E94F0
:103780001F02DC01CB018F839887A987BA876F81DD
:10379000788589859A8520E030E040E85FE30E94E3
:1037A000790388232CF481E090E09E838D833FC0D1
:1037B0006F81788589859A8520E03FEF4FE757E450
:1037C0000E94190318164CF56B857C858D859E85A6
:1037D00020E030E040E251E40E941F02DC01CB0116
:1037E000BC01CD010E944900DC01CB019E838D8389
:1037F0000FC088EC90E09C838B838B819C81019728
:10380000F1F79C838B838D819E8101979E838D83AD
:103810008D819E81009769F714C06F8178858985B5
:103820009A850E944900DC01CB019E838D838D81A6
:103830009E819A83898389819A810197F1F79A837E
:10384000898388E693E028E432E063E070E0A90130
:1038500020E030E00E94AA148CE693E021E532E0FB
:1038600063E070E0A90121E030E00E94AA1488E63C
:1038700093E02CE633E048E853E0B9010E94791563
:103880002E960FB6F894DEBF0FBECDBFCF91DF915D
:103890000895DF93CF93CDB7DEB70E94930F0E94B8
:1038A00058130E9450060E94A40E81E460E041E09B
:1038B0000E94E20681E461E041E00E94E20681E4C8
:1038C00063E041E00E94E20681E464E040E00E949F
:1038D000E20681E465E041E00E94E20681E466E000
:1038E00041E00E94E20684E465E041E00E94E206D5
:1038F00084E466E040E00E94E206CF91DF91089503
:103900002F923F924F925F926F927F928F929F92EF
:10391000AF92BF92CF92DF92EF92FF920F931F93DD
:10392000CF93DF93CDB7DEB7CA1BDB0B0FB6F8948E
:10393000DEBF0FBECDBF09942A88398848885F84CE
:103940006E847D848C849B84AA84B984C884DF803F
:10395000EE80FD800C811B81AA81B981CE0FD11D23
:103960000FB6F894DEBF0FBECDBFED010895FB0189
:10397000DC018D91019080190110D9F3990B089504
:10398000FB019F01E8944230C4F04532B4F44A3060
:1039900029F497FB1EF4909581959F4F642F77270C
:1039A0000E94C31F805D8A330CF0895D8193CB0137
:1039B0000097A1F716F45DE251931082C9010C94AF
:1039C000291FAEE0B0E0E7EEFCE10C948E1C0D89FF
:1039D0001E898F89988D97FF02C080E090E801973B
:1039E0009E838D831A83098386E08C839E01255EE6
:1039F0003F4FCE010196698D7A8DA9010E94361D37
:103A00004D815E8157FD0AC02F81388542175307CB
:103A10000CF49A01020F131FF80110822E96E4E0B5
:103A20000C94AA1CAEE0B0E0E8E1FDE10C948E1C21
:103A30000D891E8986E08C831A8309838FEF9FE7A7
:103A40009E838D839E01275E3F4FCE0101966F8935
:103A5000788DA9010E94361D2F813885020F131F12
:103A6000F80110822E96E4E00C94AA1CABE0B0E0C2
:103A7000ECE3FDE10C94801C3C012B015A01FC019C
:103A800017821682838181FD03C06FEF7FEFC6C16D
:103A90009AE0892E1E010894211C311CF301238118
:103AA000F20123FD859123FF81912F01882309F4E1
:103AB000B2C1853239F423FD859123FF81912F0115
:103AC000853229F490E0B3010E94391FE7CF982F87
:103AD000FF24EE249924FFE1FF15D0F09B3269F01A
:103AE0009C3228F4903259F0933291F40EC09D32FA
:103AF00049F0903369F441E024C052E0F52A84E0B3
:103B0000F82A28C098E0F92A25C0E0E1FE2A22C060
:103B1000F7FC29C0892F80538A3070F4F6FE05C067
:103B2000989C902C1124980E15C0E89CE02C112430
:103B3000E80EF0E2FF2A0EC09E3229F4F6FC6BC1BB
:103B400040E4F42A07C09C3619F450E8F52A02C074
:103B5000983649F4F20123FD959123FF91912F01AD
:103B6000992309F0B8CF892F8554833018F08052FB
:103B7000833038F444E050E0A40EB51E5FE359836F
:103B80000FC0933631F0933779F0933509F056C072
:103B900020C0F5018081898342E050E0A40EB51E6B
:103BA000610101E010E012C0F501C080D180F6FC97
:103BB00003C06FEF7FEF02C0692D70E042E050E07C
:103BC000A40EB51EC6010E941E1F8C015FE7F522E0
:103BD00014C0F501C080D180F6FC03C06FEF7FEF09
:103BE00002C0692D70E042E050E0A40EB51EC6018F
:103BF0000E94131F8C0150E8F52AF3FE07C01AC07B
:103C000080E290E0B3010E94391FEA948E2D90E08B
:103C100008171907A8F30EC0F601F7FC8591F7FE07
:103C200081916F0190E0B3010E94391FE110EA9485
:103C3000015010400115110579F7EAC0943611F0D2
:103C4000993669F5F7FE08C0F5012081318142817E
:103C5000538184E090E00AC0F501808191819C014C
:103C6000442737FD4095542F82E090E0A80EB91EFE
:103C70009FE6F92257FF09C0509540953095219550
:103C80003F4F4F4F5F4FE0E8FE2ACA01B901A10143
:103C90002AE030E00E94651FD82ED21840C0953728
:103CA00029F41F2D1F7E2AE030E01DC01F2D197F33
:103CB0009F3661F0903720F4983509F0ACC00FC002
:103CC000903739F0983709F0A6C004C028E030E0FA
:103CD0000AC0106114FD146020E130E004C014FD3E
:103CE000166020E132E017FF08C0F50160817181A4
:103CF0008281938144E050E008C0F5018081918188
:103D0000BC0180E090E042E050E0A40EB51EA101AD
:103D10000E94651FD82ED2188FE7F82EF122F6FEEA
:103D20000BC05EEFF522D91438F4F4FE07C0F2FCA4
:103D300005C08FEEF82202C01D2D01C0192DF4FE22
:103D40000DC0FE01ED0DF11D8081803319F499EE57
:103D5000F92208C01F5FF2FE05C003C08F2D8678D0
:103D600009F01F5F0F2DF3FC14C0F0FE0FC01E15ED
:103D700010F09D2C0BC09D2C9E0C911A1E2D06C080
:103D800080E290E0B3010E94391F1F5F1E15C0F34F
:103D900004C01E1510F4E11A01C0EE2404FF0FC088
:103DA00080E390E0B3010E94391F02FF1DC001FDB6
:103DB00003C088E790E00EC088E590E00BC0802F3C
:103DC000867891F001FF02C08BE201C080E2F7FC2F
:103DD0008DE290E0B3010E94391F06C080E390E0BD
:103DE000B3010E94391F9A94D914C0F3DA94F101F7
:103DF000ED0DF11D808190E0B3010E94391FDD209F
:103E0000A9F706C080E290E0B3010E94391FEA944E
:103E1000EE20C1F743CEF30166817781CB012B966B
:103E2000E2E10C949C1CFC01059061507040011073
:103E3000D8F7809590958E0F9F1F0895FC016150D3
:103E4000704001900110D8F7809590958E0F9F1FBC
:103E50000895DC01FC01672F71917723E1F7329718
:103E600004C07C916D9370836291AE17BF07C8F355
:103E700008950F931F93CF93DF938C01EB018B81F8
:103E800081FF1BC082FF0DC02E813F818C819D81EF
:103E90002817390764F4E881F9810193F983E883ED
:103EA00006C0E885F985802F0995892B31F48E812C
:103EB0009F8101969F838E8302C00FEF1FEFC80181
:103EC000DF91CF911F910F910895FA01AA27283011
:103ED00051F1203181F1E8946F936E7F6E5F7F4FD7
:103EE0008F4F9F4FAF4FB1E03ED0B4E03CD0670F53
:103EF000781F891F9A1FA11D680F791F8A1F911DA6
:103F0000A11D6A0F711D811D911DA11D20D009F4F5
:103F100068943F912AE0269F11243019305D319337
:103F2000DEF6CF010895462F4770405D4193B3E020
:103F30000FD0C9F7F6CF462F4F70405D4A3318F0C7
:103F4000495D31FD4052419302D0A9F7EACFB4E078
:103F5000A6959795879577956795BA95C9F7009730
:103F60006105710508959B01AC010A2E06945795D1
:103F7000479537952795BA95C9F7620F731F841F28
:103F8000951FA01D0895AA1BBB1B51E107C0AA1FC6
:103F9000BB1FA617B70710F0A61BB70B881F991FEA
:103FA0005A95A9F780959095BC01CD010895F89494
:023FB000FFCF41
:103FB2000D0A002A0031313100323232004C6F6773
:103FC200696E204661696C65640D0A004C6F676911
:103FD2006E205375636365737366756C0D0A0048D2
:103FE200656C6C6F205573657220256400313A4C04
:103FF2004544204F4E0D0A323A4C4544204F464626
:104002000D0A00496E76616C696420726F6F6D20D3
:104012006E756D6265720A004F4E004C4544204F2A
:104022004E0A004F4646004C4544204F46460A0081
:10403200496E76616C69642073656C656374696F3F
:104042006E2C2074727920616761696E0A004C459A
:104052004420002000313A4D6F746F72204F4E0D94
:104062000A323A4D6F746F72204F46460D0A00496C
:104072006E76616C696420726F6F6D206E756D6211
:1040820065720A004F4E004D6F746F72204F4E0AD8
:10409200004F4646004D6F746F72204F46460A002D
:1040A200496E76616C69642073656C656374696FCF
:1040B2006E2C2074727920616761696E0A004D6FFF
:1040C200746F72200053656C656374206120726F97
:1040D2006F6D3A0D0A00313A20526F6F6D206F6E8C
:1040E200652C2000323A20526F6F6D2074776F0D6D
:1040F2000A00496E76616C69642073656C6563744D
:10410200696F6E2C2074727920616761696E0D0A85
:1041120000313A54656D702C20323A4D6F746F72D3
:10412200732C0020333A4C4544732C20343A62619C
:10413200636B0D0A00526F6F6D20002053656C6532
:10414200637465640D0A00256400496E76616C69CA
:10415200642073656C656374696F6E2C2074727968
:1041620020616761696E0D0A0054656D703A200026
:104172002043004D6178204C6F67696E2041747452
:10418200656D70747320526561636865640057657C
:104192006C636F6D650D0A00456E7465722049444B
:1041A20000456E7465722050617373776F7264009C
:1041B20000000000000000000001020203030303EC
:1041C20004040404040404040505050505050505A5
:1041D2000505050505050505060606060606060685
:1041E200060606060606060606060606060606066D
:1041F2000606060606060606070707070707070755
:10420200070707070707070707070707070707073C
:10421200070707070707070707070707070707072C
:10422200070707070707070707070707070707071C
:104232000707070707070707080808080808080804
:1042420008080808080808080808080808080808EC
:1042520008080808080808080808080808080808DC
:1042620008080808080808080808080808080808CC
:1042720008080808080808080808080808080808BC
:1042820008080808080808080808080808080808AC
:10429200080808080808080808080808080808089C
:1042A200080808080808080808080808080808088C
:1042B20008080808080808080000000000000000BC
:1042C2003738392F3435362A3132332D43303D2BAE
:0842D2000001020304050607C8
:00000001FF
