:100000000C942A000C9447000C9447000C94470071
:100010000C9447000C9447000C9447000C94470044
:100020000C9447000C9447000C9447000C94470034
:100030000C9447000C9447000C9447000C94470024
:100040000C9447000C9447000C9447000C94470014
:100050000C94470011241FBECFE5D8E0DEBFCDBF12
:1000600013E0A0E6B0E0E8E3FFE302C005900D92E4
:10007000AE38B107D9F713E0AEE8B3E001C01D9286
:10008000A43AB107E1F70E9471150C949A1F0C94E1
:100090000000EF92FF920F931F937B018C0120E0F1
:1000A00030E040E05FE40E94F50388238CF0C80153
:1000B000B70120E030E040E05FE40E94C1010E940F
:1000C00055049B01AC01205030404040504806C0D0
:1000D000C801B7010E9455049B01AC01B901CA01D6
:1000E0001F910F91FF90EF900895A0E0B0E0EBE733
:1000F000F0E00C94AC1CDC012B01FA019C919230D5
:1001000008F439C1EB018881823008F433C194309E
:1001100069F4843009F02FC111969C91119789815F
:10012000981709F428C1A5E6B2E025C1843009F486
:1001300021C18230A9F4923009F01DC19A01AD01AC
:1001400088E0EA010990AE01E90109929E0181501F
:10015000C1F7E201898111969C918923818308C1AD
:10016000923009F407C112962D903C901397EB0141
:100170008A819B811496AD90BD90CD90DC901797AD
:10018000EC80FD800E811F819101281B390BB90184
:1001900037FF04C066277727621B730B6032710537
:1001A0000CF061C0121613066CF537014801062EDB
:1001B00004C096948794779467940A94D2F721E0C8
:1001C00030E040E050E004C0220F331F441F551FB1
:1001D0006A95D2F721503040404050402E213F21B7
:1001E00040235123211531054105510521F021E01E
:1001F00030E040E050E079018A01E628F72808293C
:1002000019293CC0232BD1F1260E371E350146019A
:10021000062E04C096948794779467940A94D2F734
:1002200021E030E040E050E004C0220F331F441FC3
:10023000551F6A95D2F721503040404050402A2146
:100240003B214C215D21211531054105510521F04E
:1002500021E030E040E050E059016A01A628B728CB
:10026000C828D9280BC0821593052CF01C01AA249C
:10027000BB24650103C0EE24FF24870111969C91E5
:10028000D20111968C91981709F445C0992339F041
:10029000A80197012A193B094C095D0906C0A6016E
:1002A00095012E193F09400B510B57FD08C01182D3
:1002B0003382228224833583468357831DC081E0A5
:1002C00081833382228288279927DC01821B930B4A
:1002D000A40BB50B84839583A683B7830DC0220F2F
:1002E000331F441F551F24833583468357838281E0
:1002F000938101979383828324813581468157813D
:10030000DA01C9010197A109B1098F5F9F4FAF4F72
:10031000BF4328F30BC0918333822282EA0CFB1C7B
:100320000C1D1D1DE482F5820683178383E0808304
:10033000248135814681578157FF1AC0C901AA27F8
:1003400097FDA095BA2F81709070A070B0705695EF
:10035000479537952795822B932BA42BB52B848318
:100360009583A683B7838281938101969383828349
:10037000DF0101C0D201CD01CDB7DEB7E2E10C94BF
:10038000C81CA0E2B0E0E7ECF1E00C94B81C698373
:100390007A838B839C832D833E834F835887E9E048
:1003A000EE2EF12CEC0EFD1ECE010196B7010E943F
:1003B00046068E010F5E1F4FCE010596B8010E94C2
:1003C00046068A8991E089278A8BC701B801AE0168
:1003D000475E5F4F0E9475000E947105A096E6E09F
:1003E0000C94D41CA0E2B0E0E8EFF1E00C94B81C4F
:1003F00069837A838B839C832D833E834F835887C5
:10040000F9E0EF2EF12CEC0EFD1ECE010196B701A6
:100410000E9446068E010F5E1F4FCE010596B80161
:100420000E944606C701B801AE01475E5F4F0E94B9
:1004300075000E947105A096E6E00C94D41CA0E221
:10044000B0E0E5E2F2E00C94AC1C69837A838B8324
:100450009C832D833E834F835887CE010196BE0136
:10046000675F7F4F0E944606CE010596BE016F5E14
:100470007F4F0E9446069985923088F089898230A4
:10048000C8F0943019F4823051F404C0843029F457
:10049000923081F485E692E0C6C0923049F420E0C3
:1004A0009A858A89981321E02A87CE010996BBC0D4
:1004B000823049F420E09A858A89981321E02A8BBA
:1004C000CE014196B0C02D843E844F8458886D88FB
:1004D0007E888F88988CEE24FF248701AA24BB2471
:1004E000650140E050E060E070E0E0E0F0E0C10174
:1004F00081709070892BE9F0E60CF71C081D191D1E
:100500009A01AB012A0D3B1D4C1D5D1D80E090E062
:10051000A0E0B0E0E614F7040805190520F481E036
:1005200090E0A0E0B0E0BA01A901480F591F6A1F8E
:100530007B1FAA0CBB1CCC1CDD1C97FE08C081E0F5
:1005400090E0A0E0B0E0A82AB92ACA2ADB2A3196B6
:10055000E032F10549F0660C771C881C991C569412
:10056000479437942794C3CFFA85EA892B893C892D
:100570008B859C85280F391F2E5F3F4F17C0CA01FE
:1005800081709070892B61F016950795F794E79428
:1005900080E090E0A0E0B0E8E82AF92A0A2B1B2BC3
:1005A00076956795579547952F5F3F4F77FDE7CF36
:1005B0000CC0440F551F661F771F17FD4160EE0CDE
:1005C000FF1C001F111F21503040403090E05907A0
:1005D00090E0690790E4790760F32B8F3C8FDB0193
:1005E000CA018F779070A070B07080349105A1051A
:1005F000B10561F447FD0AC0E114F10401051105DC
:1006000029F0405C5F4F6F4F7F4F40781A8EFE1786
:1006100011F081E08A8F4D8F5E8F6F8F78A383E01A
:10062000898FCE0149960E947105A096E2E10C9453
:10063000C81CA8E1B0E0EFE1F3E00C94B41C6983BE
:100640007A838B839C832D833E834F835887B9E0C5
:10065000EB2EF12CEC0EFD1ECE010196B7010E948F
:1006600046068E010F5E1F4FCE010596B8010E940F
:1006700046062985223008F47EC03989323010F4CC
:10068000B8017CC08A859A8989278A87243011F02D
:10069000223031F4231709F06EC065E672E06EC0B7
:1006A000343039F41D861E861F86188A1C861B86E8
:1006B00004C0323021F484E08987B7015FC02B8504
:1006C0003C858B899C89281B390B3C872B87ED84C3
:1006D000FE840F851889AD88BE88CF88D88CEA142F
:1006E000FB040C051D0540F4EE0CFF1C001F111F40
:1006F000215030403C872B8720E030E040E050E044
:1007000080E090E0A0E0B0E460E070E0EA14FB0478
:100710000C051D0540F0282B392B4A2B5B2BEA18C2
:10072000FB080C091D09B695A79597958795EE0CC2
:10073000FF1C001F111F6F5F7F4F6F31710531F775
:10074000DA01C9018F779070A070B0708034910584
:10075000A105B10561F427FD0AC0E114F10401050A
:10076000110529F0205C3F4F4F4F5F4F20782D87B8
:100770003E874F87588BBE01675F7F4FCB010E943A
:1007800071056896EAE00C94D01CA8E1B0E0EBECAF
:10079000F3E00C94B81C69837A838B839C832D834C
:1007A0003E834F83588789E0E82EF12CEC0EFD1E26
:1007B000CE010196B7010E9446068E010F5E1F4FC3
:1007C000CE010596B8010E9446068985823040F028
:1007D0008989823028F0C701B8010E94BE0601C095
:1007E0008FEF6896E6E00C94D41CA8E1B0E0EBEF44
:1007F000F3E00C94B81C69837A838B839C832D83EC
:100800003E834F83588789E0E82EF12CEC0EFD1EC5
:10081000CE010196B7010E9446068E010F5E1F4F62
:10082000CE010596B8010E9446068985823040F0C7
:100830008989823028F0C701B8010E94BE0601C034
:100840008FEF6896E6E00C94D41CA8E1B0E0EBE2F0
:10085000F4E00C94B81C69837A838B839C832D838A
:100860003E834F83588789E0E82EF12CEC0EFD1E65
:10087000CE010196B7010E9446068E010F5E1F4F02
:10088000CE010596B8010E9446068985823040F067
:100890008989823028F0C701B8010E94BE0601C0D4
:1008A00081E06896E6E00C94D41CACE0B0E0EBE5A7
:1008B000F4E00C94BC1C69837A838B839C83CE0107
:1008C0000196BE016B5F7F4F0E9446068D8182308C
:1008D00061F1823050F1843021F48E81882351F10E
:1008E0002EC02F81388537FD20C06E812F31310514
:1008F0001CF06623F9F023C08EE190E0821B930B7D
:1009000029853A854B855C8504C056954795379572
:1009100027958A95D2F76623B1F05095409530958A
:1009200021953F4F4F4F5F4F0EC020E030E040E039
:1009300050E009C02FEF3FEF4FEF5FE704C020E02A
:1009400030E040E050E8B901CA012C96E2E00C9496
:10095000D81CA8E0B0E0EFEAF4E00C94B41C7B01F2
:100960008C01611571058105910519F482E0898377
:1009700060C083E089838EE1C82ED12CDC82CB82DB
:10098000ED82FE820F831887C801B7010E942205FD
:10099000FC013197F7FF3BC0222733272E1B3F0B6B
:1009A00057016801022E04C0D694C794B794A79447
:1009B0000A94D2F740E050E060E070E081E090E01F
:1009C000A0E0B0E004C0880F991FAA1FBB1F2A95A2
:1009D000D2F70197A109B1098E219F21A023B1234C
:1009E0000097A105B10521F041E050E060E070E022
:1009F0004A295B296C297D294D835E836F83788723
:100A00008EE190E08E1B9F0B9C838B8312C03097EE
:100A100081F00E2E04C0EE0CFF1C001F111F0A9463
:100A2000D2F7ED82FE820F831887CE1ADF0ADC82AE
:100A3000CB821A82CE0101960E9471052896EAE0C7
:100A40000C94D01CEF92FF920F931F937B018C01AB
:100A500080E0E81680E0F80681E0080780E01807EB
:100A600088F48FEFE816F1040105110531F028F044
:100A700088E090E0A0E0B0E017C080E090E0A0E067
:100A8000B0E012C080E0E81680E0F80680E00807D9
:100A900081E0180728F088E190E0A0E0B0E004C011
:100AA00080E190E0A0E0B0E020E230E040E050E003
:100AB000281B390B4A0B5B0B04C016950795F7945E
:100AC000E7948A95D2F7F701E359FD4F8081281BFF
:100AD000310941095109C9011F910F91FF90EF9010
:100AE0000895DF92EF92FF920F931F93FC01E48031
:100AF000F58006811781D1808081823048F480E0C2
:100B000090E0A0E1B0E0E82AF92A0A2B1B2BA5C04F
:100B1000843009F49FC0823021F4EE24FF24870141
:100B200005C0E114F1040105110519F4E0E0F0E05D
:100B300096C0628173819FEF623879070CF05BC0C9
:100B400022E83FEF261B370B2A3131052CF020E03D
:100B500030E040E050E02AC0B801A701022E04C0F6
:100B600076956795579547950A94D2F781E090E07E
:100B7000A0E0B0E004C0880F991FAA1FBB1F2A95F0
:100B8000D2F70197A109B1098E219F21A023B1239A
:100B90000097A105B10521F081E090E0A0E0B0E070
:100BA0009A01AB01282B392B4A2B5B2BDA01C901A7
:100BB0008F779070A070B07080349105A105B10559
:100BC00039F427FF09C0205C3F4F4F4F5F4F04C0EF
:100BD000215C3F4F4F4F5F4FE0E0F0E02030A0E05E
:100BE0003A07A0E04A07A0E45A0710F0E1E0F0E07D
:100BF00079018A0127C06038710564F5FB01E1586D
:100C0000FF4FD801C7018F779070A070B07080340B
:100C10009105A105B10539F4E7FE0DC080E490E02F
:100C2000A0E0B0E004C08FE390E0A0E0B0E0E80E08
:100C3000F91E0A1F1B1F17FF05C016950795F7948D
:100C4000E794319687E016950795F794E7948A958F
:100C5000D1F705C0EE24FF248701EFEFF0E06E2FFF
:100C6000679566276795902F9F77D794DD24D79453
:100C70008E2F8695492F462B582F5D29B701CA0123
:100C80001F910F91FF90EF90DF900895FC01DB0121
:100C9000408151812281622F6F7770E0221F2227CD
:100CA000221F9381892F880F822B282F30E0991FD4
:100CB0009927991F11969C93119721153105A9F534
:100CC000411551056105710511F482E037C082E8D4
:100CD0009FEF13969C938E9312979A01AB0167E056
:100CE000220F331F441F551F6A95D1F783E08C9361
:100CF0000DC0220F331F441F551F12968D919C91DA
:100D00001397019713969C938E931297203080E04F
:100D1000380780E0480780E4580758F314962D936D
:100D20003D934D935C93179708952F3F310579F4C8
:100D3000411551056105710519F484E08C930895FE
:100D400064FF03C081E08C9312C01C9210C02F5727
:100D5000304013963C932E93129783E08C9387E058
:100D6000440F551F661F771F8A95D1F7706414963C
:100D70004D935D936D937C93179708951F93DC01BA
:100D8000FB019C91923008F447C08081823008F4C6
:100D900043C0943051F411961C91843099F58181AF
:100DA000682F70E0611B71093FC0843021F09230E0
:100DB00031F48230B9F18181882389F12DC01196F7
:100DC0001C9111978230F1F081811817D9F4129695
:100DD0002D913C911397828193818217930794F010
:100DE00028173907BCF014968D919D910D90BC91F8
:100DF000A02D2481358146815781281739074A075C
:100E00005B0718F4112341F00AC082179307A40767
:100E1000B50740F4112319F061E070E005C06FEFF1
:100E20007FEF02C060E070E0CB011F910895DF9377
:100E3000CF93CDB7DEB7EBE2F0E080E28083EAE269
:100E4000F0E088E38083E0E4F0E086E88083E9E294
:100E5000F0E083E38083E0E4F0E01082CF91DF9163
:100E60000895DF93CF930F92CDB7DEB78983ECE27D
:100E7000F0E089818083EBE2F0E0808182958695C5
:100E80008770882F90E0817090700097A1F30F9089
:100E9000CF91DF910895DF93CF93CDB7DEB7EBE22B
:100EA000F0E080818823DCF7ECE2F0E08081CF91F4
:100EB000DF910895DF93CF9300D00F92CDB7DEB7C7
:100EC0009B838A8319820EC08981282F30E08A8112
:100ED0009B81FC01E20FF31F80810E943107898111
:100EE0008F5F89838981282F30E08A819B81FC0173
:100EF000E20FF31F8081882339F70F900F900F9036
:100F0000CF91DF910895DF93CF9300D0CDB7DEB7B7
:100F10001A820BC08A81882F90E0FC01E057FC4FB9
:100F2000898180838A818F5F8A830E944B078983AE
:100F300089818D3079F78A81882F90E0FC01E05714
:100F4000FC4F108280E993E00F900F90CF91DF91DA
:100F50000895DF93CF9300D000D00F92CDB7DEB7C6
:100F600089836A834B838981282F30E03D832C83DA
:100F70008C819D818234910509F448C02C813D818A
:100F80002334310534F48C819D818134910571F0D5
:100F9000CBC02C813D812334310509F467C08C819D
:100FA0009D818434910509F491C0BEC08B8181304C
:100FB000A1F4AAE3B0E0EAE3F0E08081482F8A815F
:100FC000282F30E081E090E0022E02C0880F991FA8
:100FD0000A94E2F7842B8C93A7C08B81882309F0B5
:100FE000A3C0AAE3B0E0EAE3F0E08081482F8A8161
:100FF000282F30E081E090E0022E02C0880F991F78
:101000000A94E2F7809584238C938EC08B81813083
:10101000A1F4A7E3B0E0E7E3F0E08081482F8A8104
:10102000282F30E081E090E0022E02C0880F991F47
:101030000A94E2F7842B8C9377C08B81882309F084
:1010400073C0A7E3B0E0E7E3F0E08081482F8A8136
:10105000282F30E081E090E0022E02C0880F991F17
:101060000A94E2F7809584238C935EC08B81813053
:10107000A1F4A4E3B0E0E4E3F0E08081482F8A81AA
:10108000282F30E081E090E0022E02C0880F991FE7
:101090000A94E2F7842B8C9347C08B81882309F054
:1010A00043C0A4E3B0E0E4E3F0E08081482F8A810C
:1010B000282F30E081E090E0022E02C0880F991FB7
:1010C0000A94E2F7809584238C932EC08B81813023
:1010D000A1F4A1E3B0E0E1E3F0E08081482F8A8150
:1010E000282F30E081E090E0022E02C0880F991F87
:1010F0000A94E2F7842B8C9317C08B818823A1F488
:10110000A1E3B0E0E1E3F0E08081482F8A81282F5D
:1011100030E081E090E0022E02C0880F991F0A940F
:10112000E2F7809584238C930F900F900F900F908F
:101130000F90CF91DF910895DF93CF9300D000D02F
:101140000F92CDB7DEB789836A834B838981282FBD
:1011500030E03D832C838C819D818234910509F49C
:1011600048C02C813D812334310534F48C819D812C
:101170008134910571F0CBC02C813D812334310540
:1011800009F467C08C819D818434910509F491C074
:10119000BEC08B818130A1F4ABE3B0E0EBE3F0E0C3
:1011A0008081482F8A81282F30E081E090E0022E54
:1011B00002C0880F991F0A94E2F7842B8C93A7C072
:1011C0008B81882309F0A3C0ABE3B0E0EBE3F0E050
:1011D0008081482F8A81282F30E081E090E0022E24
:1011E00002C0880F991F0A94E2F7809584238C939C
:1011F0008EC08B818130A1F4A8E3B0E0E8E3F0E099
:101200008081482F8A81282F30E081E090E0022EF3
:1012100002C0880F991F0A94E2F7842B8C9377C041
:101220008B81882309F073C0A8E3B0E0E8E3F0E025
:101230008081482F8A81282F30E081E090E0022EC3
:1012400002C0880F991F0A94E2F7809584238C933B
:101250005EC08B818130A1F4A5E3B0E0E5E3F0E06E
:101260008081482F8A81282F30E081E090E0022E93
:1012700002C0880F991F0A94E2F7842B8C9347C011
:101280008B81882309F043C0A5E3B0E0E5E3F0E0FB
:101290008081482F8A81282F30E081E090E0022E63
:1012A00002C0880F991F0A94E2F7809584238C93DB
:1012B0002EC08B818130A1F4A2E3B0E0E2E3F0E044
:1012C0008081482F8A81282F30E081E090E0022E33
:1012D00002C0880F991F0A94E2F7842B8C9317C0E1
:1012E0008B818823A1F4A2E3B0E0E2E3F0E0808107
:1012F000482F8A81282F30E081E090E0022E02C042
:10130000880F991F0A94E2F7809584238C930F909D
:101310000F900F900F900F90CF91DF910895DF9372
:10132000CF9300D000D0CDB7DEB789836A8389819F
:10133000282F30E03C832B838B819C818234910564
:1013400051F12B813C812334310534F48B819C8114
:101350008134910561F05AC02B813C8123343105E1
:1013600071F18B819C8184349105E9F14FC0ABE32D
:10137000B0E0EBE3F0E08081482F8A81282F30E055
:1013800081E090E0022E02C0880F991F0A94E2F7D4
:1013900084278C933BC0A8E3B0E0E8E3F0E08081D1
:1013A000482F8A81282F30E081E090E0022E02C091
:1013B000880F991F0A94E2F784278C9327C0A5E32E
:1013C000B0E0E5E3F0E08081482F8A81282F30E00B
:1013D00081E090E0022E02C0880F991F0A94E2F784
:1013E00084278C9313C0A2E3B0E0E2E3F0E08081B5
:1013F000482F8A81282F30E081E090E0022E02C041
:10140000880F991F0A94E2F784278C930F900F900E
:101410000F900F90CF91DF910895DF93CF9300D07D
:1014200000D00F92CDB7DEB78A836B8319828A8191
:10143000282F30E03D832C834C815D81423451055F
:1014400041F18C819D818334910534F42C813D815F
:101450002134310561F052C04C815D814334510526
:1014600051F18C819D8184349105B9F147C0E9E344
:10147000F0E08081282F30E08B81882F90E0A90157
:1014800002C0559547958A95E2F7CA018170898314
:1014900035C0E6E3F0E08081282F30E08B81882F93
:1014A00090E0A90102C0559547958A95E2F7CA01D7
:1014B0008170898323C0E3E3F0E08081282F30E04E
:1014C0008B81882F90E0A90102C0559547958A9598
:1014D000E2F7CA018170898311C0E0E3F0E0808106
:1014E000282F30E08B81882F90E0A90102C055950C
:1014F00047958A95E2F7CA018170898389810F90A7
:101500000F900F900F900F90CF91DF910895DF9380
:10151000CF93CDB7DEB7EAE3F0E08FE78083E7E370
:10152000F0E08DEF8083E4E3F0E083E18083E1E3AA
:10153000F0E01082EBE3F0E01082E8E3F0E084EF0B
:101540008083E5E3F0E01082E2E3F0E08CE3808367
:1015500081E0CF91DF910895DF93CF93CDB7DEB7D0
:101560002E970FB6F894DEBF0FBECDBF8A836B8374
:101570004C8381E089838A81843008F00CC18B819F
:10158000883008F008C18C81813021F08C8188235B
:1015900009F001C18A81282F30E03E872D878D8593
:1015A0009E858130910509F44FC02D853E852230FE
:1015B00031052CF48D859E85009771F0EDC02D8549
:1015C0003E852230310509F477C08D859E858330B4
:1015D000910509F4A9C0E0C08C81282F30E03C8738
:1015E0002B878B859C850097D1F02B853C852130FE
:1015F000310509F0D1C0AAE3B0E0EAE3F0E0808170
:10160000482F8B81282F30E081E090E0022E02C02D
:10161000880F991F0A94E2F7842B8C93BDC0AAE32C
:10162000B0E0EAE3F0E08081482F8B81282F30E0A2
:1016300081E090E0022E02C0880F991F0A94E2F721
:10164000809584238C93A8C08C81282F30E03A8722
:10165000298789859A850097D1F029853A85213097
:10166000310509F099C0A7E3B0E0E7E3F0E080813D
:10167000482F8B81282F30E081E090E0022E02C0BD
:10168000880F991F0A94E2F7842B8C9385C0A7E3F7
:10169000B0E0E7E3F0E08081482F8B81282F30E035
:1016A00081E090E0022E02C0880F991F0A94E2F7B1
:1016B000809584238C9370C08C81282F30E03887EC
:1016C0002F838F8198850097D1F02F813885213025
:1016D000310509F061C0A4E3B0E0E4E3F0E080810B
:1016E000482F8B81282F30E081E090E0022E02C04D
:1016F000880F991F0A94E2F7842B8C934DC0A4E3C2
:10170000B0E0E4E3F0E08081482F8B81282F30E0C7
:1017100081E090E0022E02C0880F991F0A94E2F740
:10172000809584238C9338C08C81282F30E03E83B1
:101730002D838D819E810097C9F02D813E812130BE
:10174000310551F5A1E3B0E0E1E3F0E08081482FFD
:101750008B81282F30E081E090E0022E02C0880FBC
:10176000991F0A94E2F7842B8C9316C0A1E3B0E092
:10177000E1E3F0E08081482F8B81282F30E081E089
:1017800090E0022E02C0880F991F0A94E2F780951C
:1017900084238C9301C0198289812E960FB6F89408
:1017A000DEBF0FBECDBFCF91DF910895DF93CF9302
:1017B000CDB7DEB72E970FB6F894DEBF0FBECDBF04
:1017C0008A836B834C8381E089838A81843008F02B
:1017D0000CC18B81883008F008C18C81813021F0E8
:1017E0008C81882309F001C18A81282F30E03E874F
:1017F0002D878D859E858130910509F44FC02D85FB
:101800003E85223031052CF48D859E85009771F040
:10181000EDC02D853E852230310509F477C08D85D8
:101820009E858330910509F4A9C0E0C08C81282FE2
:1018300030E03C872B878B859C850097D1F02B85EA
:101840003C852130310509F0D1C0ABE3B0E0EBE3DA
:10185000F0E08081482F8B81282F30E081E090E0FC
:10186000022E02C0880F991F0A94E2F7842B8C93F2
:10187000BDC0ABE3B0E0EBE3F0E08081482F8B81AB
:10188000282F30E081E090E0022E02C0880F991FDF
:101890000A94E2F7809584238C93A8C08C81282F2A
:1018A00030E03A87298789859A850097D1F0298584
:1018B0003A852130310509F099C0A8E3B0E0E8E3AA
:1018C000F0E08081482F8B81282F30E081E090E08C
:1018D000022E02C0880F991F0A94E2F7842B8C9382
:1018E00085C0A8E3B0E0E8E3F0E08081482F8B8179
:1018F000282F30E081E090E0022E02C0880F991F6F
:101900000A94E2F7809584238C9370C08C81282FF1
:1019100030E038872F838F8198850097D1F02F8111
:1019200038852130310509F061C0A5E3B0E0E5E379
:10193000F0E08081482F8B81282F30E081E090E01B
:10194000022E02C0880F991F0A94E2F7842B8C9311
:101950004DC0A5E3B0E0E5E3F0E08081482F8B8146
:10196000282F30E081E090E0022E02C0880F991FFE
:101970000A94E2F7809584238C9338C08C81282FB9
:1019800030E03E832D838D819E810097C9F02D81AB
:101990003E812130310551F5A2E3B0E0E2E3F0E011
:1019A0008081482F8B81282F30E081E090E0022E4B
:1019B00002C0880F991F0A94E2F7842B8C9316C0FB
:1019C000A2E3B0E0E2E3F0E08081482F8B81282F92
:1019D00030E081E090E0022E02C0880F991F0A9447
:1019E000E2F7809584238C9301C0198289812E9619
:1019F0000FB6F894DEBF0FBECDBFCF91DF91089533
:101A0000DF93CF93CDB7DEB727970FB6F894DEBF3D
:101A10000FBECDBF8A836B835D834C8381E0898356
:101A20008A81843008F07AC08B81883008F076C0D3
:101A30008C819D81009709F471C08A81282F30E044
:101A40003F832E834E815F814130510559F18E8154
:101A50009F818230910534F42E813F81211531051B
:101A600069F05DC04E815F814230510579F18E8110
:101A70009F818330910509F43DC051C0E9E3F0E056
:101A80008081282F30E08B81882F90E0A90102C04F
:101A9000559547958A95E2F7CA018170EC81FD81E1
:101AA00080833DC0E6E3F0E08081282F30E08B8129
:101AB000882F90E0A90102C0559547958A95E2F7D5
:101AC000CA018170EC81FD81808329C0E3E3F0E0ED
:101AD0008081282F30E08B81882F90E0A90102C0FF
:101AE000559547958A95E2F7CA018170EC81FD8191
:101AF000808315C0E0E3F0E08081282F30E08B8107
:101B0000882F90E0A90102C0559547958A95E2F784
:101B1000CA018170EC81FD81808301C019828981B5
:101B200027960FB6F894DEBF0FBECDBFCF91DF91E1
:101B30000895DF93CF93CDB7DEB72D970FB6F89406
:101B4000DEBF0FBECDBF8A836B8381E089838A812C
:101B5000843008F084C08B81813021F08B81882310
:101B600009F07DC08A81282F30E03D872C878C8545
:101B70009D858130910571F12C853D85223031059F
:101B80002CF48C859D85009769F06AC02C853D8575
:101B900022303105B1F18C859D858330910509F4A2
:101BA00047C05EC08B81282F30E03B872A878A851B
:101BB0009B85009759F02A853B852130310509F036
:101BC0004FC0EAE3F0E08FEF80834AC0EAE3F0E041
:101BD000108246C08B81282F30E03987288788857E
:101BE0009985009751F02885398521303105C1F557
:101BF000E7E3F0E08FEF808333C0E7E3F0E01082AB
:101C00002FC08B81282F30E03F832E838E819F81D0
:101C1000009751F02E813F812130310509F5E4E331
:101C2000F0E08FEF80831CC0E4E3F0E0108218C086
:101C30008B81282F30E03D832C838C819D81009700
:101C400051F02C813D812130310551F4E1E3F0E088
:101C50008FEF808305C0E1E3F0E0108201C01982BC
:101C600089812D960FB6F894DEBF0FBECDBFCF9100
:101C7000DF910895DF93CF9300D000D00F92CDB7BE
:101C8000DEB78A836B8381E089838A81843098F50B
:101C90008A81282F30E03D832C838C819D81813087
:101CA0009105D1F02C813D81223031052CF48C81BD
:101CB0009D81009761F020C02C813D81223031054B
:101CC00081F08C819D818330910581F015C0EBE31B
:101CD000F0E08B81808310C0E8E3F0E08B818083AB
:101CE0000BC0E5E3F0E08B81808306C0E2E3F0E027
:101CF0008B81808301C0198289810F900F900F9092
:101D00000F900F90CF91DF910895DF93CF9300D084
:101D100000D000D0CDB7DEB78A837C836B8381E0AF
:101D200089838A81843008F03FC08B819C81009731
:101D3000D9F18A81282F30E03E832D838D819E81C9
:101D400081309105E1F02D813E81223031052CF466
:101D50008D819E81009761F028C02D813E812230C7
:101D60003105A1F08D819E8183309105B1F01DC0B8
:101D7000E9E3F0E08081EB81FC81808316C0E6E33B
:101D8000F0E08081EB81FC8180830FC0E3E3F0E031
:101D90008081EB81FC81808308C0E0E3F0E08081FA
:101DA000EB81FC81808301C01982898126960FB660
:101DB000F894DEBF0FBECDBFCF91DF910895DF93C2
:101DC000CF9300D000D00F92CDB7DEB78A836B835C
:101DD00081E089838A81843008F073C08B818830E8
:101DE00008F06FC08A81282F30E03D832C838C81DE
:101DF0009D818130910549F12C813D812230310551
:101E00002CF48C819D81009761F05CC02C813D8118
:101E10002230310571F18C819D8183309105E9F18A
:101E200051C0ABE3B0E0EBE3F0E08081482F8B8161
:101E3000282F30E081E090E0022E02C0880F991F29
:101E40000A94E2F784278C933DC0A8E3B0E0E8E36E
:101E5000F0E08081482F8B81282F30E081E090E0F6
:101E6000022E02C0880F991F0A94E2F784278C93F0
:101E700029C0A5E3B0E0E5E3F0E08081482F8B8145
:101E8000282F30E081E090E0022E02C0880F991FD9
:101E90000A94E2F784278C9315C0A2E3B0E0E2E352
:101EA000F0E08081482F8B81282F30E081E090E0A6
:101EB000022E02C0880F991F0A94E2F784278C93A0
:101EC00001C0198289810F900F900F900F900F9091
:101ED000CF91DF910895DF93CF93CDB7DEB7A7E21F
:101EE000B0E0E7E2F0E080818F778C93A7E2B0E08A
:101EF000E7E2F0E0808180648C93A7E2B0E0E7E263
:101F0000F0E080818F7D8C93A7E2B0E0E7E2F0E023
:101F100080818C93A6E2B0E0E6E2F0E0808180620E
:101F20008C93A0E5B0E0E0E5F0E080818F778C93C2
:101F3000A0E5B0E0E0E5F0E080818F7B8C93A0E548
:101F4000B0E0E0E5F0E080818F7D8C93A6E2B0E028
:101F5000E6E2F0E08081877F8C93A6E2B0E0E6E2E3
:101F6000F0E0808187608C93A6E2B0E0E6E2F0E0EA
:101F7000808180688C93CF91DF910895DF93CF9318
:101F800000D0CDB7DEB71A821982A6E2B0E0E6E251
:101F9000F0E0808180648C93E6E2F0E080818295BD
:101FA0008F70882F90E0817090700097A9F3E4E221
:101FB000F0E08081282F30E0E5E2F0E08081882F9A
:101FC00090E0982F8827822B932B9A838983A6E20F
:101FD000B0E0E6E2F0E0808180618C9389819A81B3
:101FE0000F900F90CF91DF910895DF93CF9300D0A2
:101FF0000F92CDB7DEB78B831A821982A7E2B0E0C9
:10200000E7E2F0E08081807E8C93A7E2B0E0E7E237
:10201000F0E090818B81892B8C93A6E2B0E0E6E220
:10202000F0E0808180648C93E6E2F0E0808182952C
:102030008F70882F90E0817090700097A9F3E4E290
:10204000F0E08081282F30E0E5E2F0E08081882F09
:1020500090E0982F8827822B932B9A838983A6E27E
:10206000B0E0E6E2F0E0808180618C9389819A8122
:102070000F900F900F90CF91DF910895DF93CF9342
:10208000CDB7DEB7A6E2B0E0E6E2F0E0808180689E
:102090008C93CF91DF910895DF93CF93CDB7DEB7C7
:1020A000A6E2B0E0E6E2F0E080818F778C93CF91FA
:1020B000DF910895DF93CF93CDB7DEB76C970FB65E
:1020C000F894DEBF0FBECDBFE1E3F0E08FEF808379
:1020D000E7E3F0E08FEF808380E090E0A0EAB1E4F6
:1020E000898F9A8FAB8FBC8F698D7A8D8B8D9C8DEC
:1020F00020E030E04AEF54E40E941F02DC01CB01F3
:102100008D8B9E8BAF8BB88F6D897E898F89988DD3
:1021100020E030E040E85FE30E94250488232CF4AF
:1021200081E090E09C8B8B8B3FC06D897E898F898D
:10213000988D20E03FEF4FE757E40E94C503181643
:102140004CF5698D7A8D8B8D9C8D20E030E040E2DE
:1021500051E40E941F02DC01CB01BC01CD010E94B1
:102160004900DC01CB019C8B8B8B0FC088EC90E08D
:102170009A8B898B89899A890197F1F79A8B898B38
:102180008B899C8901979C8B8B8B8B899C89009771
:1021900069F714C06D897E898F89988D0E944900E6
:1021A000DC01CB019C8B8B8B8B899C89988B8F87D7
:1021B0008F8598890197F1F7988B8F8788E30E9424
:1021C00068118CE00E94681186E00E94681181E02D
:1021D0000E94681180E090E0A0E0B0E48B879C87CB
:1021E000AD87BE876B857C858D859E8520E030E040
:1021F0004AEF54E40E941F02DC01CB018F839887D1
:10220000A987BA876F81788589859A8520E030E033
:1022100040E85FE30E94250488232CF481E090E0ED
:102220009E838D833FC06F81788589859A8520E064
:102230003FEF4FE757E40E94C50318164CF56B8536
:102240007C858D859E8520E030E040E251E40E944F
:102250001F02DC01CB01BC01CD010E944900DC0161
:10226000CB019E838D830FC088EC90E09C838B8391
:102270008B819C810197F1F79C838B838D819E815B
:1022800001979E838D838D819E81009769F714C08D
:102290006F81788589859A850E944900DC01CB0190
:1022A0009E838D838D819E819A83898389819A8182
:1022B0000197F1F79A83898380E80E9468116C96F0
:1022C0000FB6F894DEBF0FBECDBFCF91DF9108955A
:1022D000DF93CF93CDB7DEB76D970FB6F894DEBF1F
:1022E0000FBECDBF8D8FE8E3F0E08D8D8083A2E33C
:1022F000B0E0E2E3F0E080818B7F8C93A2E3B0E07A
:10230000E2E3F0E08081877F8C93A2E3B0E0E2E338
:10231000F0E0808180618C9380E090E0A0E8BFE3F2
:10232000898F9A8FAB8FBC8F698D7A8D8B8D9C8DA9
:1023300020E030E04AEF54E40E941F02DC01CB01B0
:102340008D8B9E8BAF8BB88F6D897E898F89988D91
:1023500020E030E040E85FE30E94250488232CF46D
:1023600081E090E09C8B8B8B3FC06D897E898F894B
:10237000988D20E03FEF4FE757E40E94C503181601
:102380004CF5698D7A8D8B8D9C8D20E030E040E29C
:1023900051E40E941F02DC01CB01BC01CD010E946F
:1023A0004900DC01CB019C8B8B8B0FC088EC90E04B
:1023B0009A8B898B89899A890197F1F79A8B898BF6
:1023C0008B899C8901979C8B8B8B8B899C8900972F
:1023D00069F714C06D897E898F89988D0E944900A4
:1023E000DC01CB019C8B8B8B8B899C89988B8F8795
:1023F0008F8598890197F1F7988B8F87A2E3B0E0DA
:10240000E2E3F0E080818F7E8C9380E090E0A0EAB0
:10241000B0E48B879C87AD87BE876B857C858D8577
:102420009E8520E030E04AEF54E40E941F02DC0168
:10243000CB018F839887A987BA876F817885898533
:102440009A8520E030E040E85FE30E94250488237D
:102450002CF481E090E09E838D833FC06F8178856E
:1024600089859A8520E03FEF4FE757E40E94C50336
:1024700018164CF56B857C858D859E8520E030E0B7
:1024800040E251E40E941F02DC01CB01BC01CD01FE
:102490000E944900DC01CB019E838D830FC088EC34
:1024A00090E09C838B838B819C810197F1F79C83C7
:1024B0008B838D819E8101979E838D838D819E81EB
:1024C000009769F714C06F81788589859A850E9485
:1024D0004900DC01CB019E838D838D819E819A838F
:1024E000898389819A810197F1F79A8389836D960F
:1024F0000FB6F894DEBF0FBECDBFCF91DF91089528
:10250000DF93CF93CDB7DEB76D970FB6F894DEBFEC
:102510000FBECDBF8D8FE8E3F0E08D8D8083A2E309
:10252000B0E0E2E3F0E0808184608C93A2E3B0E06D
:10253000E2E3F0E08081877F8C93A2E3B0E0E2E306
:10254000F0E0808180618C9380E090E0A0E8BFE3C0
:10255000898F9A8FAB8FBC8F698D7A8D8B8D9C8D77
:1025600020E030E04AEF54E40E941F02DC01CB017E
:102570008D8B9E8BAF8BB88F6D897E898F89988D5F
:1025800020E030E040E85FE30E94250488232CF43B
:1025900081E090E09C8B8B8B3FC06D897E898F8919
:1025A000988D20E03FEF4FE757E40E94C5031816CF
:1025B0004CF5698D7A8D8B8D9C8D20E030E040E26A
:1025C00051E40E941F02DC01CB01BC01CD010E943D
:1025D0004900DC01CB019C8B8B8B0FC088EC90E019
:1025E0009A8B898B89899A890197F1F79A8B898BC4
:1025F0008B899C8901979C8B8B8B8B899C890097FD
:1026000069F714C06D897E898F89988D0E94490071
:10261000DC01CB019C8B8B8B8B899C89988B8F8762
:102620008F8598890197F1F7988B8F87A2E3B0E0A7
:10263000E2E3F0E080818F7E8C9380E090E0A0EA7E
:10264000B0E48B879C87AD87BE876B857C858D8545
:102650009E8520E030E04AEF54E40E941F02DC0136
:10266000CB018F839887A987BA876F817885898501
:102670009A8520E030E040E85FE30E94250488234B
:102680002CF481E090E09E838D833FC06F8178853C
:1026900089859A8520E03FEF4FE757E40E94C50304
:1026A00018164CF56B857C858D859E8520E030E085
:1026B00040E251E40E941F02DC01CB01BC01CD01CC
:1026C0000E944900DC01CB019E838D830FC088EC02
:1026D00090E09C838B838B819C810197F1F79C8395
:1026E0008B838D819E8101979E838D838D819E81B9
:1026F000009769F714C06F81788589859A850E9453
:102700004900DC01CB019E838D838D819E819A835C
:10271000898389819A810197F1F79A8389836D96DC
:102720000FB6F894DEBF0FBECDBFCF91DF910895F5
:10273000DF93CF9300D00F92CDB7DEB79B838A8310
:10274000198219820EC08981282F30E08A819B81ED
:10275000FC01E20FF31F80810E94801289818F5F4C
:1027600089838981282F30E08A819B81FC01E20FD7
:10277000F31F8081882339F70F900F900F90CF912E
:10278000DF910895DF93CF9300D000D0CDB7DEB7AF
:102790008B836C8380E8898380EC8A838B81282FEC
:1027A00030E0CE010196FC01E20FF31F90818C8195
:1027B000890F0E9468110F900F900F900F90CF918A
:1027C000DF910895DF93CF9300D000D0CDB7DEB76F
:1027D0009B838A836C8319828C81882F90E0089672
:1027E000880F991F880F991F880F991F0E946811E1
:1027F00019820EC08981282F30E08A819B81FC01DB
:10280000E20FF31F80810E94801289818F5F89838C
:102810008981883078F30F900F900F900F90CF91AF
:10282000DF910895DF93CF93CDB7DEB781E00E94AB
:10283000681180E80E946811CF91DF910895DF93BD
:10284000CF930F92CDB7DEB7198233C08981882F1D
:1028500090E0FC01EB57FC4F908182E0692F41E052
:102860000E94AC0A8981882F90E0FC01EB57FC4F55
:10287000908182E0692F41E00E94D60B8981882FE8
:1028800090E0FC01E757FC4F908182E0692F40E027
:102890000E94AC0A8981882F90E0FC01E757FC4F29
:1028A000908182E0692F41E00E94D60B89818F5F81
:1028B00089838981843050F281E00F90CF91DF913C
:1028C0000895DF93CF93CDB7DEB765970FB6F89431
:1028D000DEBF0FBECDBF9D8B8C8B81E08A8B1B8AA8
:1028E0001F868C899D89009709F4F0C0EC89FD89C9
:1028F0008FEF8083198AE5C08989882F90E0FC01D9
:10290000EB57FC4F908182E0692F40E00E94D60B8C
:10291000188AC1C08889882F90E0FC01E757FC4FD6
:1029200090819E012D5E3F4F82E0692FA9010E9498
:10293000000D8B89882309F0ABC080E090E0A0EA0D
:10294000B1E48B879C87AD87BE876B857C858D8541
:102950009E8520E030E04AE755E40E941F02DC013A
:10296000CB018F839887A987BA876F8178858985FE
:102970009A8520E030E040E85FE30E942504882348
:102980002CF481E090E09E838D833FC06F81788539
:1029900089859A8520E03FEF4FE757E40E94C50301
:1029A00018164CF56B857C858D859E8520E030E082
:1029B00040E251E40E941F02DC01CB01BC01CD01C9
:1029C0000E944900DC01CB019E838D830FC080E90A
:1029D00091E09C838B838B819C810197F1F79C8391
:1029E0008B838D819E8101979E838D838D819E81B6
:1029F000009769F714C06F81788589859A850E9450
:102A00004900DC01CB019E838D838D819E819A8359
:102A1000898389819A810197F1F79A8389838889CB
:102A2000882F90E0FC01E757FC4F90819E012D5EBE
:102A30003F4F82E0692FA9010E94000D0FC08889D5
:102A4000882F90E0FC01E757FC4F90819E012D5E9E
:102A50003F4F82E0692FA9010E94000D8B898823D6
:102A600071F38989482F50E08889282F30E0CA0106
:102A7000880F991F880F991F820F931FFC01EB5835
:102A8000FC4F8081EC89FD89808381E08F8707C0BE
:102A900088898F5F888B8889843008F43BCF898947
:102AA000882F90E0FC01EB57FC4F908182E0692F6A
:102AB00041E00E94D60B8F85882349F489898F5F76
:102AC000898B8989843008F417CF01C01A8A8A89D2
:102AD00065960FB6F894DEBF0FBECDBFCF91DF91E4
:102AE0000895DF93CF93CDB7DEB70E94AD150E9456
:102AF00030190E94B91980E090E0CF91DF910895DC
:102B0000DF93CF93CDB7DEB780918F03833018F07A
:102B10000E949D18FDCF0E9430198DE693E020E6BB
:102B200030E063E070E0A90120E030E00E94BC15D5
:102B300081E793E029E630E063E070E0A90121E05D
:102B400030E00E94BC158DE693E021E733E0B90147
:102B50000E94F716CF91DF910895DF93CF93CDB701
:102B6000DEB70E945A100E941F140E9417070E948D
:102B70006B0FCF91DF910895DF93CF93CDB7DEB781
:102B8000A5970FB6F894DEBF0FBECDBF98A38F8F69
:102B900069A35BA34AA32CA31D8E8AA19BA10E94BB
:102BA000981380E090E0A8ECB2E4898F9A8FAB8F05
:102BB000BC8F698D7A8D8B8D9C8D20E030E04AEF43
:102BC00054E40E941F02DC01CB018D8B9E8BAF8BE6
:102BD000B88F6D897E898F89988D20E030E040E83C
:102BE0005FE30E94250488232CF481E090E09C8B15
:102BF0008B8B3FC06D897E898F89988D20E03FEF58
:102C00004FE757E40E94C50318164CF5698D7A8D7D
:102C10008B8D9C8D20E030E040E251E40E941F0249
:102C2000DC01CB01BC01CD010E944900DC01CB01DC
:102C30009C8B8B8B0FC088EC90E09A8B898B898959
:102C40009A890197F1F79A8B898B8B899C890197D7
:102C50009C8B8B8B8B899C89009769F73EC06D8913
:102C60007E898F89988D0E944900DC01CB019C8B65
:102C70008B8B8B899C89988B8F878F8598890197FF
:102C8000F1F7988B8F8729C0CE014E960E94611470
:102C9000813019F58E8D8F3F01F18D8D282F30E019
:102CA00081E090E0B9010E94C2138CA1882319F43D
:102CB0008E8D8DA302C08AE28DA38DA10E94801209
:102CC0008D8D282F30E08F8D98A1FC01E20FF31F2E
:102CD0008E8D80838D8D8F5F8D8F9D8D89A19817AF
:102CE00098F28D8D282F30E08F8D98A1FC01E20F96
:102CF000F31F108280E090E0A8E4B2E48B879C8709
:102D0000AD87BE876B857C858D859E8520E030E014
:102D10004AEF54E40E941F02DC01CB018F839887A5
:102D2000A987BA876F81788589859A8520E030E008
:102D300040E85FE30E94250488232CF481E090E0C2
:102D40009E838D833FC06F81788589859A8520E039
:102D50003FEF4FE757E40E94C50318164CF56B850B
:102D60007C858D859E8520E030E040E251E40E9424
:102D70001F02DC01CB01BC01CD010E944900DC0136
:102D8000CB019E838D830FC088EC90E09C838B8366
:102D90008B819C810197F1F79C838B838D819E8130
:102DA00001979E838D838D819E81009769F714C062
:102DB0006F81788589859A850E944900DC01CB0165
:102DC0009E838D838D819E819A83898389819A8157
:102DD0000197F1F79A8389830E941214A5960FB682
:102DE000F894DEBF0FBECDBFCF91DF910895DF9382
:102DF000CF93CDB7DEB76C970FB6F894DEBF0FBE9A
:102E0000CDBF9A8F898F7C8F6B8F0E94121488E7B9
:102E100090E09A8B898B8CE790E09C8B8B8B88E77A
:102E200090E09E8B8D8B8CE790E0988F8F8B188A2B
:102E30001F8638C08F85882F90E09C01220F331F9A
:102E4000CE010196820F931FFC0170962081318183
:102E5000898D9A8DB9010E94E31C009701F58F8539
:102E6000882F90E09C01220F331FCE010196820F24
:102E7000931FFC017496208131818B8D9C8DB9014B
:102E80000E94E31C009759F48F85882F90E00196EB
:102E90000E94E3170E94141A81E0888B06C08F8578
:102EA0008F5F8F878F85823028F28889882309F089
:102EB0007FC080918F038F5F80938F0380E890E0C5
:102EC0000E94981380E090E0A8ECB2E48B879C8786
:102ED000AD87BE876B857C858D859E8520E030E043
:102EE0004AEF54E40E941F02DC01CB018F839887D4
:102EF000A987BA876F81788589859A8520E030E037
:102F000040E85FE30E94250488232CF481E090E0F0
:102F10009E838D833FC06F81788589859A8520E067
:102F20003FEF4FE757E40E94C50318164CF56B8539
:102F30007C858D859E8520E030E040E251E40E9452
:102F40001F02DC01CB01BC01CD010E944900DC0164
:102F5000CB019E838D830FC088EC90E09C838B8394
:102F60008B819C810197F1F79C838B838D819E815E
:102F700001979E838D838D819E81009769F714C090
:102F80006F81788589859A850E944900DC01CB0193
:102F90009E838D838D819E819A83898389819A8185
:102FA0000197F1F79A8389830E9412140E94801579
:102FB0000E9412146C960FB6F894DEBF0FBECDBF00
:102FC000CF91DF910895DF93CF93CDB7DEB76F97A1
:102FD0000FB6F894DEBF0FBECDBF8F8F8DE890E0A7
:102FE0000E94981381E090E060E070E00E94C213BC
:102FF0008F8D282F30E08DB79EB708970FB6F894C5
:103000009EBF0FBE8DBFEDB7FEB73196CE010F96B6
:103010009183808380E190E0938382838EE990E0C6
:1030200095838483378326830E94EC1C8DB79EB7DB
:1030300008960FB6F8949EBF0FBE8DBFCE010F96B7
:103040000E94981380E090E0A8ECB2E48B879C8704
:10305000AD87BE876B857C858D859E8520E030E0C1
:103060004AEF54E40E941F02DC01CB018F83988752
:10307000A987BA876F81788589859A8520E030E0B5
:1030800040E85FE30E94250488232CF481E090E06F
:103090009E838D833FC06F81788589859A8520E0E6
:1030A0003FEF4FE757E40E94C50318164CF56B85B8
:1030B0007C858D859E8520E030E040E251E40E94D1
:1030C0001F02DC01CB01BC01CD010E944900DC01E3
:1030D000CB019E838D830FC088EC90E09C838B8313
:1030E0008B819C810197F1F79C838B838D819E81DD
:1030F00001979E838D838D819E81009769F714C00F
:103100006F81788589859A850E944900DC01CB0111
:103110009E838D838D819E819A83898389819A8103
:103120000197F1F79A8389836F960FB6F894DEBF03
:103130000FBECDBFCF91DF910895DF93CF93CDB771
:10314000DEB72E970FB6F894DEBF0FBECDBF8CEA68
:1031500090E00E94981381E090E060E070E00E94AF
:10316000C21386EB90E00E94981380E090E0A8ECF8
:10317000B2E48B879C87AD87BE876B857C858D8508
:103180009E8520E030E04AEF54E40E941F02DC01FB
:10319000CB018F839887A987BA876F8178858985C6
:1031A0009A8520E030E040E85FE30E942504882310
:1031B0002CF481E090E09E838D833FC06F81788501
:1031C00089859A8520E03FEF4FE757E40E94C503C9
:1031D00018164CF56B857C858D859E8520E030E04A
:1031E00040E251E40E941F02DC01CB01BC01CD0191
:1031F0000E944900DC01CB019E838D830FC088ECC7
:1032000090E09C838B838B819C810197F1F79C8359
:103210008B838D819E8101979E838D838D819E817D
:10322000009769F714C06F81788589859A850E9417
:103230004900DC01CB019E838D838D819E819A8321
:10324000898389819A810197F1F79A8389832E96E0
:103250000FB6F894DEBF0FBECDBFCF91DF910895BA
:10326000DF93CF93CDB7DEB72E970FB6F894DEBFBE
:103270000FBECDBF87EC90E00E945A0780E090E03F
:10328000AAEFB3E48B879C87AD87BE876B857C856F
:103290008D859E8520E030E04AEF54E40E941F02B5
:1032A000DC01CB018F839887A987BA876F817885E6
:1032B00089859A8520E030E040E85FE30E9425049C
:1032C00088232CF481E090E09E838D833FC06F8142
:1032D000788589859A8520E03FEF4FE757E40E9483
:1032E000C50318164CF56B857C858D859E8520E081
:1032F00030E040E251E40E941F02DC01CB01BC013E
:10330000CD010E944900DC01CB019E838D830FC05B
:1033100088EC90E09C838B838B819C810197F1F7F3
:103320009C838B838D819E8101979E838D838D816C
:103330009E81009769F714C06F81788589859A8589
:103340000E944900DC01CB019E838D838D819E818B
:103350009A83898389819A810197F1F79A83898376
:103360002E960FB6F894DEBF0FBECDBFCF91DF9182
:103370000895DF93CF9300D00F92CDB7DEB781EDE4
:1033800090E00E945A0782EE90E00E945A078EEE6B
:1033900090E00E945A073DC0CE0101960E94611440
:1033A0008130B9F589818F3FA1F18981282F30E0E3
:1033B0003B832A838A819B818133910531F02A8165
:1033C0003B812233310589F020C081E080938E0358
:1033D0000E9412148AEF90E00E94981381E091E01D
:1033E0000E945A070E94141A14C082E080938E0330
:1033F0000E94121483E191E00E9498138AE191E007
:103400000E945A070E94141A04C08CE291E00E94A4
:103410005A0780918E03882309F4BECF0F900F9036
:103420000F90CF91DF910895DF93CF9300D000D01C
:10343000CDB7DEB78BE491E00E945A078DE591E0AD
:103440000E945A0780E791E00E945A0719823EC005
:10345000CE0102960E9461148130C1F58A818F3FAE
:10346000A9F18A81282F30E03C832B838B819C81BA
:103470008333910509F12B813C81243331055CF4C0
:103480008B819C818133910589F02B813C81223392
:10349000310579F01BC08B819C818433910579F0D3
:1034A0002B813C812334310569F010C00E94A31B9D
:1034B0000DC00E94711A0AC00E940A1B07C00E9418
:1034C000801504C00E9412140E94141A8981882356
:1034D00009F4BECF0F900F900F900F90CF91DF9116
:1034E0000895DF93CF9300D000D0CDB7DEB788E743
:1034F00091E00E945A0781E0898381C0CE01029643
:103500000E946114813009F07AC08A818F3F09F4EA
:1035100076C08A81833421F419820E94141A6FC004
:103520008A81282F30E03C832B838B819C818133DF
:10353000910531F02B813C812233310569F15BC06B
:1035400080918E03813081F481E461E041E00E944A
:103550009C0881E090E060E070E00E94C21381E985
:1035600091E00E94981313C080918E03823079F409
:1035700081E460E041E00E949C0881E090E060E02E
:1035800070E00E94C2138CE991E00E94981387EAD0
:1035900091E00E945A0733C080918E03813081F4FC
:1035A00081E461E040E00E949C0881E090E060E0FE
:1035B00070E00E94C21381EB91E00E94981313C047
:1035C00080918E03823079F481E460E040E00E94D3
:1035D0009C0881E090E060E070E00E94C2138DEBF7
:1035E00091E00E94981389EC91E00E945A07198299
:1035F0000E94141A04C084ED91E00E945A07898148
:10360000882309F07BCF0F900F900F900F90CF91F0
:10361000DF910895DF93CF9300D000D0CDB7DEB710
:1036200082EF91E00E945A0781E0898381C0CE0138
:1036300002960E946114813009F07AC08A818F3F1E
:1036400009F476C08A81833421F419820E94141A05
:103650006FC08A81282F30E03C832B838B819C8133
:103660008133910531F02B813C812233310569F1A1
:103670005BC080918E03813081F481E465E041E09C
:103680000E949C0881E090E060E070E00E94C2131C
:1036900087E092E00E94981313C080918E038230DD
:1036A00079F481E460E041E00E949C0881E090E0D0
:1036B00060E070E00E94C21380E192E00E949813E3
:1036C00089E192E00E945A0733C080918E038130D5
:1036D00081F481E465E040E00E949C0881E090E094
:1036E00060E070E00E94C21381E292E00E949813B1
:1036F00013C080918E03823079F481E460E040E071
:103700000E949C0881E090E060E070E00E94C2139B
:103710008BE292E00E94981385E392E00E945A07A0
:1037200019820E94141A04C084ED91E00E945A0785
:103730008981882309F07BCF0F900F900F900F9015
:10374000CF91DF910895DF93CF93CDB7DEB7669722
:103750000FB6F894DEBF0FBECDBF0E9412148EE3E9
:1037600092E00E94981381E460E041E00E949C088E
:1037700081E463E041E00E949C0881E08D8BDFC022
:1037800082E090E00E94F50F9C8B8B8B8B899C894B
:10379000CC01A0E0B0E0BC01CD010E94A904DC0195
:1037A000CB01BC01CD0120E030E040E854E40E94B0
:1037B0001903DC01CB01BC01CD0120E030E04AEF70
:1037C00053E40E941F02DC01CB018F87988BA98BE9
:1037D000BA8B6F85788989899A8920E030E040EF3B
:1037E00051E40E94C5031816ACF481E460E041E0A6
:1037F0000E949C0881E463E041E00E949C0881E013
:1038000090E060E070E00E94C21384E592E00E94C4
:1038100098130AC081E460E040E00E949C0881E4C3
:1038200063E040E00E949C08CE0146960E9461142D
:10383000813099F48E898F3F81F08E89833469F4C9
:1038400081E460E040E00E949C0881E463E040E0A5
:103850000E949C081D8A0E94141A80E090E6AAEE3D
:10386000B6E48B879C87AD87BE876B857C858D850D
:103870009E8520E030E04AEF54E40E941F02DC0104
:10388000CB018F839887A987BA876F8178858985CF
:103890009A8520E030E040E85FE30E942504882319
:1038A0002CF481E090E09E838D833FC06F8178850A
:1038B00089859A8520E03FEF4FE757E40E94C503D2
:1038C00018164CF56B857C858D859E8520E030E053
:1038D00040E251E40E941F02DC01CB01BC01CD019A
:1038E0000E944900DC01CB019E838D830FC088ECD0
:1038F00090E09C838B838B819C810197F1F79C8363
:103900008B838D819E8101979E838D838D819E8186
:10391000009769F714C06F81788589859A850E9420
:103920004900DC01CB019E838D838D819E819A832A
:10393000898389819A810197F1F79A8389838D8997
:10394000882309F01DCF66960FB6F894DEBF0FBE30
:10395000CDBFCF91DF9108952F923F924F925F920A
:103960006F927F928F929F92AF92BF92CF92DF928F
:10397000EF92FF920F931F93CF93DF93CDB7DEB7F4
:10398000CA1BDB0B0FB6F894DEBF0FBECDBF099488
:103990002A88398848885F846E847D848C849B84DF
:1039A000AA84B984C884DF80EE80FD800C811B81ED
:1039B000AA81B981CE0FD11D0FB6F894DEBF0FBE1C
:1039C000CDBFED010895FB01DC018D9101908019BF
:1039D0000110D9F3990B0895AEE0B0E0E2EFFCE1FD
:1039E0000C94BA1C0D891E898F89988D97FF02C08F
:1039F00080E090E801979E838D831A83098386E097
:103A00008C839E01255E3F4FCE010196698D7A8D94
:103A1000A9010E941D1D4D815E8157FD0AC02F81A5
:103A20003885421753070CF49A01020F131FF8014F
:103A300010822E96E4E00C94D61CABE0B0E0E3E2FA
:103A4000FDE10C94AC1C3C012B015A01FC011782D6
:103A50001682838181FD03C06FEF7FEFC6C19AE0BC
:103A6000892E1E010894211C311CF3012381F201CF
:103A700023FD859123FF81912F01882309F4B2C191
:103A8000853239F423FD859123FF81912F01853201
:103A900029F490E0B3010E94101FE7CF982FFF2474
:103AA000EE249924FFE1FF15D0F09B3269F09C329F
:103AB00028F4903259F0933291F40EC09D3249F0BF
:103AC000903369F441E024C052E0F52A84E0F82AFA
:103AD00028C098E0F92A25C0E0E1FE2A22C0F7FCC0
:103AE00029C0892F80538A3070F4F6FE05C0989C57
:103AF000902C1124980E15C0E89CE02C1124E80E9F
:103B0000F0E2FF2A0EC09E3229F4F6FC6BC140E4BD
:103B1000F42A07C09C3619F450E8F52A02C09836FA
:103B200049F4F20123FD959123FF91912F019923EF
:103B300009F0B8CF892F8554833018F08052833034
:103B400038F444E050E0A40EB51E5FE359830FC083
:103B5000933631F0933779F0933509F056C020C091
:103B6000F5018081898342E050E0A40EB51E610119
:103B700001E010E012C0F501C080D180F6FC03C066
:103B80006FEF7FEF02C0692D70E042E050E0A40EBD
:103B9000B51EC6010E94051F8C015FE7F52214C007
:103BA000F501C080D180F6FC03C06FEF7FEF02C04B
:103BB000692D70E042E050E0A40EB51EC6010E94DF
:103BC000FA1E8C0150E8F52AF3FE07C01AC080E205
:103BD00090E0B3010E94101FEA948E2D90E0081728
:103BE0001907A8F30EC0F601F7FC8591F7FE819145
:103BF0006F0190E0B3010E94101FE110EA940150A0
:103C000010400115110579F7EAC0943611F0993684
:103C100069F5F7FE08C0F5012081318142815381A9
:103C200084E090E00AC0F501808191819C014427E5
:103C300037FD4095542F82E090E0A80EB91E9FE614
:103C4000F92257FF09C050954095309521953F4F77
:103C50004F4F5F4FE0E8FE2ACA01B901A1012AE0F7
:103C600030E00E943C1FD82ED21840C0953729F46E
:103C70001F2D1F7E2AE030E01DC01F2D197F9F36AB
:103C800061F0903720F4983509F0ACC00FC0903740
:103C900039F0983709F0A6C004C028E030E00AC027
:103CA000106114FD146020E130E004C014FD1660C2
:103CB00020E132E017FF08C0F50160817181828147
:103CC000938144E050E008C0F50180819181BC01FE
:103CD00080E090E042E050E0A40EB51EA1010E94F9
:103CE0003C1FD82ED2188FE7F82EF122F6FE0BC01B
:103CF0005EEFF522D91438F4F4FE07C0F2FC05C0DB
:103D00008FEEF82202C01D2D01C0192DF4FE0DC04A
:103D1000FE01ED0DF11D8081803319F499EEF92239
:103D200008C01F5FF2FE05C003C08F2D867809F022
:103D30001F5F0F2DF3FC14C0F0FE0FC01E1510F016
:103D40009D2C0BC09D2C9E0C911A1E2D06C080E24E
:103D500090E0B3010E94101F1F5F1E15C0F304C046
:103D60001E1510F4E11A01C0EE2404FF0FC080E319
:103D700090E0B3010E94101F02FF1DC001FD03C0AF
:103D800088E790E00EC088E590E00BC0802F867831
:103D900091F001FF02C08BE201C080E2F7FC8DE2EE
:103DA00090E0B3010E94101F06C080E390E0B301D1
:103DB0000E94101F9A94D914C0F3DA94F101ED0D0A
:103DC000F11D808190E0B3010E94101FDD20A9F752
:103DD00006C080E290E0B3010E94101FEA94EE203A
:103DE000C1F743CEF30166817781CB012B96E2E1E7
:103DF0000C94C81CFC010590615070400110D8F76C
:103E0000809590958E0F9F1F0895FC016150704022
:103E100001900110D8F7809590958E0F9F1F0895FF
:103E20000F931F93CF93DF938C01EB018B8181FF65
:103E30001BC082FF0DC02E813F818C819D81281780
:103E4000390764F4E881F9810193F983E88306C0B6
:103E5000E885F985802F0995892B31F48E819F8122
:103E600001969F838E8302C00FEF1FEFC801DF9181
:103E7000CF911F910F910895FA01AA27283051F18F
:103E8000203181F1E8946F936E7F6E5F7F4F8F4F8B
:103E90009F4FAF4FB1E03ED0B4E03CD0670F781FEA
:103EA000891F9A1FA11D680F791F8A1F911DA11DCF
:103EB0006A0F711D811D911DA11D20D009F4689408
:103EC0003F912AE0269F11243019305D3193DEF6B0
:103ED000CF010895462F4770405D4193B3E00FD066
:103EE000C9F7F6CF462F4F70405D4A3318F0495D51
:103EF00031FD4052419302D0A9F7EACFB4E0A69534
:103F00009795879577956795BA95C9F70097610555
:103F1000710508959B01AC010A2E069457954795AB
:103F200037952795BA95C9F7620F731F841F951FA0
:083F3000A01D0895F894FFCFD5
:103F3800456E74657220494400456E746572205060
:103F4800617373776F72640031313100323232003D
:103F58004C6F67696E204661696C6564004C6F67D9
:103F6800696E205375636365737366756C00486585
:103F78006C6C6F2055736572202564004D61782044
:103F88004C6F67696E00417474656D70747320526C
:103F98006561636865640057656C636F6D650D0ADC
:103FA8000053656C656374206120726F6F6D3A0D04
:103FB8000A00313A20526F6F6D20310D0A00323AF3
:103FC80020526F6F6D20320D0A00526F6F6D2031D5
:103FD80000526F6F6D20312053656C6563746564A2
:103FE8000D0A00526F6F6D203200526F6F6D2032D4
:103FF8002053656C65637465640D0A00496E7661CB
:104008006C69642073656C656374696F6E2C2074C9
:10401800727920616761696E0D0A00313A54656DE5
:10402800702C20323A4D6F746F72732C0020333A23
:104038004C4544732C20343A4C6F676F75742C00D0
:1040480020353A434C520A00313A4D6F746F722052
:104058004F4E2C20323A4D6F746F72204F46460AED
:10406800004D6F746F722031204F4E004D6F746F8A
:10407800722032204F4E004D6F746F72204F4E0ADF
:10408800004D6F746F722031204F4646004D6F749B
:104098006F722032204F4646004D6F746F72204F6A
:1040A80046460A00496E76616C69642073656C65E2
:1040B8006374696F6E2C2074727920616761696E10
:1040C8000A00313A4C4544204F4E2C20323A4C4598
:1040D80044204F46460A004C45442031204F4E00AC
:1040E8004C45442032204F4E004C4544204F4E0A48
:1040F800004C45442031204F4646004C4544203270
:10410800204F4646004C4544204F46460A00546519
:104118006D70657261747572652073656E736F7208
:10412800206F6E00486967682054656D7020416C87
:104138006572742100000000000000000000010208
:10414800020303030304040404040404040505052A
:104158000505050505050505050505050506060604
:1041680006060606060606060606060606060606E7
:1041780006060606060606060606060606070707D4
:1041880007070707070707070707070707070707B7
:1041980007070707070707070707070707070707A7
:1041A8000707070707070707070707070707070797
:1041B8000707070707070707070707070708080884
:1041C8000808080808080808080808080808080867
:1041D8000808080808080808080808080808080857
:1041E8000808080808080808080808080808080847
:1041F8000808080808080808080808080808080837
:104208000808080808080808080808080808080826
:104218000808080808080808080808080808080816
:104228000808080808080808080808080808080806
:10423800080808080808080808080808080000000E
:1042480000000000003738392F3435362A31323330
:0E4258002D43303D2B00010203040506070034
:00000001FF
