:100000000C942A000C9447000C9447000C94470071
:100010000C9447000C9447000C9447000C94470044
:100020000C9447000C9447000C9447000C94470034
:100030000C9447000C9447000C9447000C94470024
:100040000C9447000C9447000C9447000C94470014
:100050000C94470011241FBECFE5D8E0DEBFCDBF12
:1000600011E0A0E6B0E0E2E0FAE302C005900D92F4
:10007000AA35B107D9F711E0AAE5B1E001C01D9298
:10008000AF36B107E1F70E94FD130C94FF1C0C94EE
:100090000000EF92FF920F931F937B018C0120E0F1
:1000A00030E040E05FE40E94490388238CF0C801FF
:1000B000B70120E030E040E05FE40E94C1010E940F
:1000C000A9039B01AC01205030404040504806C07D
:1000D000C801B7010E94A9039B01AC01B901CA0183
:1000E0001F910F91FF90EF900895A0E0B0E0EBE733
:1000F000F0E00C94CC19DC012B01FA019C919230B8
:1001000008F439C1EB018881823008F433C194309E
:1001100069F4843009F02FC111969C91119789815F
:10012000981709F428C1A1E3B1E025C1843009F48E
:1001300021C18230A9F4923009F01DC19A01AD01AC
:1001400088E0EA010990AE01E90109929E0181501F
:10015000C1F7E201898111969C918923818308C1AD
:10016000923009F407C112962D903C901397EB0141
:100170008A819B811496AD90BD90CD90DC901797AD
:10018000EC80FD800E811F819101281B390BB90184
:1001900037FF04C066277727621B730B6032710537
:1001A0000CF061C0121613066CF537014801062EDB
:1001B00004C096948794779467940A94D2F721E0C8
:1001C00030E040E050E004C0220F331F441F551FB1
:1001D0006A95D2F721503040404050402E213F21B7
:1001E00040235123211531054105510521F021E01E
:1001F00030E040E050E079018A01E628F72808293C
:1002000019293CC0232BD1F1260E371E350146019A
:10021000062E04C096948794779467940A94D2F734
:1002200021E030E040E050E004C0220F331F441FC3
:10023000551F6A95D2F721503040404050402A2146
:100240003B214C215D21211531054105510521F04E
:1002500021E030E040E050E059016A01A628B728CB
:10026000C828D9280BC0821593052CF01C01AA249C
:10027000BB24650103C0EE24FF24870111969C91E5
:10028000D20111968C91981709F445C0992339F041
:10029000A80197012A193B094C095D0906C0A6016E
:1002A00095012E193F09400B510B57FD08C01182D3
:1002B0003382228224833583468357831DC081E0A5
:1002C00081833382228288279927DC01821B930B4A
:1002D000A40BB50B84839583A683B7830DC0220F2F
:1002E000331F441F551F24833583468357838281E0
:1002F000938101979383828324813581468157813D
:10030000DA01C9010197A109B1098F5F9F4FAF4F72
:10031000BF4328F30BC0918333822282EA0CFB1C7B
:100320000C1D1D1DE482F5820683178383E0808304
:10033000248135814681578157FF1AC0C901AA27F8
:1003400097FDA095BA2F81709070A070B0705695EF
:10035000479537952795822B932BA42BB52B848318
:100360009583A683B7838281938101969383828349
:10037000DF0101C0D201CD01CDB7DEB7E2E10C94BF
:10038000E819A0E2B0E0E7ECF1E00C94D819698339
:100390007A838B839C832D833E834F835887E9E048
:1003A000EE2EF12CEC0EFD1ECE010196B7010E943F
:1003B000D2048E010F5E1F4FCE010596B8010E9438
:1003C000D2048A8991E089278A8BC701B801AE01DE
:1003D000475E5F4F0E9475000E94FD03A096E6E015
:1003E0000C94F419A0E2B0E0E8EFF1E00C94D81915
:1003F00069837A838B839C832D833E834F835887C5
:10040000F9E0EF2EF12CEC0EFD1ECE010196B701A6
:100410000E94D2048E010F5E1F4FCE010596B801D7
:100420000E94D204C701B801AE01475E5F4F0E942F
:1004300075000E94FD03A096E6E00C94F419A0E27A
:10044000B0E0E5E2F2E00C94CC1969837A838B8307
:100450009C832D833E834F835887CE010196BE0136
:10046000675F7F4F0E94D204CE010596BE016F5E8A
:100470007F4F0E94D2049985923088F0898982301A
:10048000C8F0943019F4823051F404C0843029F457
:10049000923081F481E391E0C6C0923049F420E0CB
:1004A0009A858A89981321E02A87CE010996BBC0D4
:1004B000823049F420E09A858A89981321E02A8BBA
:1004C000CE014196B0C02D843E844F8458886D88FB
:1004D0007E888F88988CEE24FF248701AA24BB2471
:1004E000650140E050E060E070E0E0E0F0E0C10174
:1004F00081709070892BE9F0E60CF71C081D191D1E
:100500009A01AB012A0D3B1D4C1D5D1D80E090E062
:10051000A0E0B0E0E614F7040805190520F481E036
:1005200090E0A0E0B0E0BA01A901480F591F6A1F8E
:100530007B1FAA0CBB1CCC1CDD1C97FE08C081E0F5
:1005400090E0A0E0B0E0A82AB92ACA2ADB2A3196B6
:10055000E032F10549F0660C771C881C991C569412
:10056000479437942794C3CFFA85EA892B893C892D
:100570008B859C85280F391F2E5F3F4F17C0CA01FE
:1005800081709070892B61F016950795F794E79428
:1005900080E090E0A0E0B0E8E82AF92A0A2B1B2BC3
:1005A00076956795579547952F5F3F4F77FDE7CF36
:1005B0000CC0440F551F661F771F17FD4160EE0CDE
:1005C000FF1C001F111F21503040403090E05907A0
:1005D00090E0690790E4790760F32B8F3C8FDB0193
:1005E000CA018F779070A070B07080349105A1051A
:1005F000B10561F447FD0AC0E114F10401051105DC
:1006000029F0405C5F4F6F4F7F4F40781A8EFE1786
:1006100011F081E08A8F4D8F5E8F6F8F78A383E01A
:10062000898FCE0149960E94FD03A096E2E10C94C9
:10063000E819A8E1B0E0EFE1F3E00C94D819698380
:100640007A838B839C832D833E834F83588789E0F5
:10065000E82EF12CEC0EFD1ECE010196B7010E9492
:10066000D2048E010F5E1F4FCE010596B8010E9485
:10067000D2048985823040F08989823028F0C70110
:10068000B8010E944A0501C08FEF6896E6E00C941D
:10069000F419A8E1B0E0EFE4F3E00C94D819698311
:1006A0007A838B839C832D833E834F83588789E095
:1006B000E82EF12CEC0EFD1ECE010196B7010E9432
:1006C000D2048E010F5E1F4FCE010596B8010E9425
:1006D000D2048985823040F08989823028F0C701B0
:1006E000B8010E944A0501C08FEF6896E6E00C94BD
:1006F000F419A8E1B0E0EFE7F3E00C94D8196983AE
:100700007A838B839C832D833E834F83588789E034
:10071000E82EF12CEC0EFD1ECE010196B7010E94D1
:10072000D2048E010F5E1F4FCE010596B8010E94C4
:10073000D2048985823040F08989823028F0C7014F
:10074000B8010E944A0501C081E06896E6E00C9479
:10075000F419ACE0B0E0EFEAF3E00C94DC19698343
:100760007A838B839C83CE010196BE016B5F7F4FA2
:100770000E94D2048D81823061F1823050F1843048
:1007800021F48E81882351F12EC02F81388537FDC9
:1007900020C06E812F3131051CF06623F9F023C093
:1007A0008EE190E0821B930B29853A854B855C8511
:1007B00004C056954795379527958A95D2F76623B5
:1007C000B1F050954095309521953F4F4F4F5F4F79
:1007D0000EC020E030E040E050E009C02FEF3FEFD6
:1007E0004FEF5FE704C020E030E040E050E8B9019F
:1007F000CA012C96E2E00C94F819DF92EF92FF9276
:100800000F931F93FC01E480F58006811781D1804E
:100810008081823048F480E090E0A0E1B0E0E82AF6
:10082000F92A0A2B1B2BA5C0843009F49FC0823003
:1008300021F4EE24FF24870105C0E114F104010531
:10084000110519F4E0E0F0E096C0628173819FEF3A
:10085000623879070CF05BC022E83FEF261B370BAC
:100860002A3131052CF020E030E040E050E02AC091
:10087000B801A701022E04C0769567955795479554
:100880000A94D2F781E090E0A0E0B0E004C0880FC5
:10089000991FAA1FBB1F2A95D2F70197A109B10979
:1008A0008E219F21A023B1230097A105B10521F03E
:1008B00081E090E0A0E0B0E09A01AB01282B392B59
:1008C0004A2B5B2BDA01C9018F779070A070B07052
:1008D00080349105A105B10539F427FF09C0205CDA
:1008E0003F4F4F4F5F4F04C0215C3F4F4F4F5F4F13
:1008F000E0E0F0E02030A0E03A07A0E04A07A0E402
:100900005A0710F0E1E0F0E079018A0127C0603871
:10091000710564F5FB01E158FF4FD801C7018F77DE
:100920009070A070B07080349105A105B10539F4C4
:10093000E7FE0DC080E490E0A0E0B0E004C08FE3EB
:1009400090E0A0E0B0E0E80EF91E0A1F1B1F17FFA1
:1009500005C016950795F794E794319687E01695AC
:100960000795F794E7948A95D1F705C0EE24FF2404
:100970008701EFEFF0E06E2F679566276795902F60
:100980009F77D794DD24D7948E2F8695492F462BB9
:10099000582F5D29B701CA011F910F91FF90EF9069
:1009A000DF900895FC01DB01408151812281622F9B
:1009B0006F7770E0221F2227221F9381892F880FD3
:1009C000822B282F30E0991F9927991F11969C930D
:1009D000119721153105A9F54115510561057105DD
:1009E00011F482E037C082E89FEF13969C938E93B8
:1009F00012979A01AB0167E0220F331F441F551F66
:100A00006A95D1F783E08C930DC0220F331F441FEA
:100A1000551F12968D919C911397019713969C9355
:100A20008E931297203080E0380780E0480780E4FA
:100A3000580758F314962D933D934D935C93179755
:100A400008952F3F310579F4411551056105710570
:100A500019F484E08C93089564FF03C081E08C93C3
:100A600012C01C9210C02F57304013963C932E9307
:100A7000129783E08C9387E0440F551F661F771F02
:100A80008A95D1F7706414964D935D936D937C9322
:100A9000179708951F93DC01FB019C91923008F495
:100AA00047C08081823008F443C0943051F41196DD
:100AB0001C91843099F58181682F70E0611B710968
:100AC0003FC0843021F0923031F48230B9F181811D
:100AD000882389F12DC011961C9111978230F1F075
:100AE00081811817D9F412962D913C911397828128
:100AF00093818217930794F028173907BCF0149656
:100B00008D919D910D90BC91A02D248135814681C0
:100B10005781281739074A075B0718F4112341F05A
:100B20000AC082179307A407B50740F4112319F0F0
:100B300061E070E005C06FEF7FEF02C060E070E041
:100B4000CB011F910895DF93CF93CDB7DEB7EBE2D2
:100B5000F0E080E28083EAE2F0E088E38083E0E492
:100B6000F0E086E88083E9E2F0E083E38083E0E47C
:100B7000F0E01082CF91DF910895DF93CF930F9231
:100B8000CDB7DEB78983ECE2F0E089818083EBE2C8
:100B9000F0E08081829586958770882F90E0817043
:100BA00090700097A1F30F90CF91DF910895DF939C
:100BB000CF93CDB7DEB7EBE2F0E080818823DCF79E
:100BC000ECE2F0E08081CF91DF910895DF93CF9345
:100BD00000D00F92CDB7DEB79B838A8319820EC0F7
:100BE0008981282F30E08A819B81FC01E20FF31F6D
:100BF00080810E94BD0589818F5F89838981282F2B
:100C000030E08A819B81FC01E20FF31F8081882301
:100C100039F70F900F900F90CF91DF910895DF93E8
:100C2000CF9300D0CDB7DEB71A820BC08A81882F50
:100C300090E0FC01E55AFE4F898180838A818F5FB5
:100C40008A830E94D705898389818D3079F78A81CB
:100C5000882F90E0FC01E55AFE4F10828BE591E071
:100C60000F900F90CF91DF910895DF93CF9300D035
:100C700000D00F92CDB7DEB789836A834B83898119
:100C8000282F30E03D832C838C819D818234910517
:100C900009F448C02C813D812334310534F48C8122
:100CA0009D818134910571F0CBC02C813D8123342D
:100CB000310509F467C08C819D818434910509F464
:100CC00091C0BEC08B818130A1F4AAE3B0E0EAE319
:100CD000F0E08081482F8A81282F30E081E090E089
:100CE000022E02C0880F991F0A94E2F7842B8C937E
:100CF000A7C08B81882309F0A3C0AAE3B0E0EAE390
:100D0000F0E08081482F8A81282F30E081E090E058
:100D1000022E02C0880F991F0A94E2F7809584235F
:100D20008C938EC08B818130A1F4A7E3B0E0E7E320
:100D3000F0E08081482F8A81282F30E081E090E028
:100D4000022E02C0880F991F0A94E2F7842B8C931D
:100D500077C08B81882309F073C0A7E3B0E0E7E395
:100D6000F0E08081482F8A81282F30E081E090E0F8
:100D7000022E02C0880F991F0A94E2F780958423FF
:100D80008C935EC08B818130A1F4A4E3B0E0E4E3F6
:100D9000F0E08081482F8A81282F30E081E090E0C8
:100DA000022E02C0880F991F0A94E2F7842B8C93BD
:100DB00047C08B81882309F043C0A4E3B0E0E4E39B
:100DC000F0E08081482F8A81282F30E081E090E098
:100DD000022E02C0880F991F0A94E2F7809584239F
:100DE0008C932EC08B818130A1F4A1E3B0E0E1E3CC
:100DF000F0E08081482F8A81282F30E081E090E068
:100E0000022E02C0880F991F0A94E2F7842B8C935C
:100E100017C08B818823A1F4A1E3B0E0E1E3F0E007
:100E20008081482F8A81282F30E081E090E0022ED7
:100E300002C0880F991F0A94E2F7809584238C934F
:100E40000F900F900F900F900F90CF91DF9108951A
:100E5000DF93CF9300D000D00F92CDB7DEB7898358
:100E60006A834B838981282F30E03D832C838C81DA
:100E70009D818234910509F448C02C813D81233441
:100E8000310534F48C819D818134910571F0CBC0A2
:100E90002C813D812334310509F467C08C819D810B
:100EA0008434910509F491C0BEC08B818130A1F4D6
:100EB000ABE3B0E0EBE3F0E08081482F8A81282F9C
:100EC00030E081E090E0022E02C0880F991F0A9462
:100ED000E2F7842B8C93A7C08B81882309F0A3C0F1
:100EE000ABE3B0E0EBE3F0E08081482F8A81282F6C
:100EF00030E081E090E0022E02C0880F991F0A9432
:100F0000E2F7809584238C938EC08B818130A1F48D
:100F1000A8E3B0E0E8E3F0E08081482F8A81282F41
:100F200030E081E090E0022E02C0880F991F0A9401
:100F3000E2F7842B8C9377C08B81882309F073C0F0
:100F4000A8E3B0E0E8E3F0E08081482F8A81282F11
:100F500030E081E090E0022E02C0880F991F0A94D1
:100F6000E2F7809584238C935EC08B818130A1F45D
:100F7000A5E3B0E0E5E3F0E08081482F8A81282FE7
:100F800030E081E090E0022E02C0880F991F0A94A1
:100F9000E2F7842B8C9347C08B81882309F043C0F0
:100FA000A5E3B0E0E5E3F0E08081482F8A81282FB7
:100FB00030E081E090E0022E02C0880F991F0A9471
:100FC000E2F7809584238C932EC08B818130A1F42D
:100FD000A2E3B0E0E2E3F0E08081482F8A81282F8D
:100FE00030E081E090E0022E02C0880F991F0A9441
:100FF000E2F7842B8C9317C08B818823A1F4A2E3A2
:10100000B0E0E2E3F0E08081482F8A81282F30E0D1
:1010100081E090E0022E02C0880F991F0A94E2F747
:10102000809584238C930F900F900F900F900F90CA
:10103000CF91DF910895DF93CF9300D000D0CDB74B
:10104000DEB789836A838981282F30E03C832B8334
:101050008B819C818234910551F12B813C81233419
:10106000310534F48B819C818134910561F05AC043
:101070002B813C812334310571F18B819C81843437
:101080009105E9F14FC0ABE3B0E0EBE3F0E0808124
:10109000482F8A81282F30E081E090E0022E02C0A4
:1010A000880F991F0A94E2F784278C933BC0A8E32A
:1010B000B0E0E8E3F0E08081482F8A81282F30E01B
:1010C00081E090E0022E02C0880F991F0A94E2F797
:1010D00084278C9327C0A5E3B0E0E5E3F0E08081AE
:1010E000482F8A81282F30E081E090E0022E02C054
:1010F000880F991F0A94E2F784278C9313C0A2E308
:10110000B0E0E2E3F0E08081482F8A81282F30E0D0
:1011100081E090E0022E02C0880F991F0A94E2F746
:1011200084278C930F900F900F900F90CF91DF91A9
:101130000895DF93CF9300D000D00F92CDB7DEB7E4
:101140008A836B8319828A81282F30E03D832C8328
:101150004C815D814234510541F18C819D81833404
:10116000910534F42C813D812134310561F052C068
:101170004C815D814334510551F18C819D818434D2
:101180009105B9F147C0E9E3F0E08081282F30E014
:101190008B81882F90E0A90102C0559547958A95CB
:1011A000E2F7CA018170898335C0E6E3F0E080810F
:1011B000282F30E08B81882F90E0A90102C055953F
:1011C00047958A95E2F7CA018170898323C0E3E3DA
:1011D000F0E08081282F30E08B81882F90E0A901FA
:1011E00002C0559547958A95E2F7CA0181708983B7
:1011F00011C0E0E3F0E08081282F30E08B81882F60
:1012000090E0A90102C0559547958A95E2F7CA0179
:101210008170898389810F900F900F900F900F90AC
:10122000CF91DF910895DF93CF93CDB7DEB7EAE397
:10123000F0E08FE78083E7E3F0E08DEF8083E4E385
:10124000F0E083E18083E1E3F0E01082EBE3F0E0A3
:101250001082E8E3F0E084EF8083E5E3F0E01082C1
:10126000E2E3F0E08CE3808381E0CF91DF910895A9
:10127000DF93CF93CDB7DEB72E970FB6F894DEBFCE
:101280000FBECDBF8A836B834C8381E089838A81C3
:10129000843008F00CC18B81883008F008C18C8143
:1012A000813021F08C81882309F001C18A81282FA7
:1012B00030E03E872D878D859E858130910509F42C
:1012C0004FC02D853E85223031052CF48D859E85BD
:1012D000009771F0EDC02D853E852230310509F46F
:1012E00077C08D859E858330910509F4A9C0E0C043
:1012F0008C81282F30E03C872B878B859C8500973D
:10130000D1F02B853C852130310509F0D1C0AAE30D
:10131000B0E0EAE3F0E08081482F8B81282F30E0B5
:1013200081E090E0022E02C0880F991F0A94E2F734
:10133000842B8C93BDC0AAE3B0E0EAE3F0E08081A7
:10134000482F8B81282F30E081E090E0022E02C0F0
:10135000880F991F0A94E2F7809584238C93A8C084
:101360008C81282F30E03A87298789859A850097D4
:10137000D1F029853A852130310509F099C0A7E3DC
:10138000B0E0E7E3F0E08081482F8B81282F30E048
:1013900081E090E0022E02C0880F991F0A94E2F7C4
:1013A000842B8C9385C0A7E3B0E0E7E3F0E0808175
:1013B000482F8B81282F30E081E090E0022E02C080
:1013C000880F991F0A94E2F7809584238C9370C04C
:1013D0008C81282F30E038872F838F819885009764
:1013E000D1F02F8138852130310509F061C0A4E3A7
:1013F000B0E0E4E3F0E08081482F8B81282F30E0DB
:1014000081E090E0022E02C0880F991F0A94E2F753
:10141000842B8C934DC0A4E3B0E0E4E3F0E0808142
:10142000482F8B81282F30E081E090E0022E02C00F
:10143000880F991F0A94E2F7809584238C9338C013
:101440008C81282F30E03E832D838D819E810097F3
:10145000C9F02D813E812130310551F5A1E3B0E085
:10146000E1E3F0E08081482F8B81282F30E081E09C
:1014700090E0022E02C0880F991F0A94E2F7842B95
:101480008C9316C0A1E3B0E0E1E3F0E08081482F47
:101490008B81282F30E081E090E0022E02C0880F7F
:1014A000991F0A94E2F7809584238C9301C01982D6
:1014B00089812E960FB6F894DEBF0FBECDBFCF91B7
:1014C000DF910895DF93CF93CDB7DEB72E970FB698
:1014D000F894DEBF0FBECDBF8A836B834C8381E05F
:1014E00089838A81843008F00CC18B81883008F0B0
:1014F00008C18C81813021F08C81882309F001C1E1
:101500008A81282F30E03E872D878D859E8581300A
:10151000910509F44FC02D853E85223031052CF40C
:101520008D859E85009771F0EDC02D853E8522301A
:10153000310509F477C08D859E858330910509F4C6
:10154000A9C0E0C08C81282F30E03C872B878B8599
:101550009C850097D1F02B853C852130310509F021
:10156000D1C0ABE3B0E0EBE3F0E08081482F8B81AA
:10157000282F30E081E090E0022E02C0880F991FF2
:101580000A94E2F7842B8C93BDC0ABE3B0E0EBE3AD
:10159000F0E08081482F8B81282F30E081E090E0BF
:1015A000022E02C0880F991F0A94E2F780958423C7
:1015B0008C93A8C08C81282F30E03A8729878985B1
:1015C0009A850097D1F029853A852130310509F0B7
:1015D00099C0A8E3B0E0E8E3F0E08081482F8B8178
:1015E000282F30E081E090E0022E02C0880F991F82
:1015F0000A94E2F7842B8C9385C0A8E3B0E0E8E37B
:10160000F0E08081482F8B81282F30E081E090E04E
:10161000022E02C0880F991F0A94E2F78095842356
:101620008C9370C08C81282F30E038872F838F8176
:1016300098850097D1F02F8138852130310509F048
:1016400061C0A5E3B0E0E5E3F0E08081482F8B8145
:10165000282F30E081E090E0022E02C0880F991F11
:101660000A94E2F7842B8C934DC0A5E3B0E0E5E348
:10167000F0E08081482F8B81282F30E081E090E0DE
:10168000022E02C0880F991F0A94E2F780958423E6
:101690008C9338C08C81282F30E03E832D838D8140
:1016A0009E810097C9F02D813E812130310551F591
:1016B000A2E3B0E0E2E3F0E08081482F8B81282FA5
:1016C00030E081E090E0022E02C0880F991F0A945A
:1016D000E2F7842B8C9316C0A2E3B0E0E2E3F0E0E3
:1016E0008081482F8B81282F30E081E090E0022E0E
:1016F00002C0880F991F0A94E2F7809584238C9387
:1017000001C0198289812E960FB6F894DEBF0FBEF4
:10171000CDBFCF91DF910895DF93CF93CDB7DEB7E3
:1017200027970FB6F894DEBF0FBECDBF8A836B83B9
:101730005D834C8381E089838A81843008F07AC09C
:101740008B81883008F076C08C819D81009709F4E8
:1017500071C08A81282F30E03F832E834E815F81C4
:101760004130510559F18E819F818230910534F4C9
:101770002E813F812115310569F05DC04E815F8169
:101780004230510579F18E819F818330910509F4B2
:101790003DC051C0E9E3F0E08081282F30E08B812B
:1017A000882F90E0A90102C0559547958A95E2F7E8
:1017B000CA018170EC81FD8180833DC0E6E3F0E0E9
:1017C0008081282F30E08B81882F90E0A90102C012
:1017D000559547958A95E2F7CA018170EC81FD81A4
:1017E000808329C0E3E3F0E08081282F30E08B8103
:1017F000882F90E0A90102C0559547958A95E2F798
:10180000CA018170EC81FD81808315C0E0E3F0E0C6
:101810008081282F30E08B81882F90E0A90102C0C1
:10182000559547958A95E2F7CA018170EC81FD8153
:10183000808301C01982898127960FB6F894DEBF94
:101840000FBECDBFCF91DF910895DF93CF93CDB77A
:10185000DEB72D970FB6F894DEBF0FBECDBF8A83DB
:101860006B8381E089838A81843008F084C08B8116
:10187000813021F08B81882309F07DC08A81282F57
:1018800030E03D872C878C859D858130910571F1F5
:101890002C853D85223031052CF48C859D85009763
:1018A00069F06AC02C853D8522303105B1F18C8507
:1018B0009D858330910509F447C05EC08B81282F38
:1018C00030E03B872A878A859B85009759F02A85D7
:1018D0003B852130310509F04FC0EAE3F0E08FEF9E
:1018E00080834AC0EAE3F0E0108246C08B81282F53
:1018F00030E03987288788859985009751F02885B9
:10190000398521303105C1F5E7E3F0E08FEF8083C1
:1019100033C0E7E3F0E010822FC08B81282F30E046
:101920003F832E838E819F81009751F02E813F81CE
:101930002130310509F5E4E3F0E08FEF80831CC02E
:10194000E4E3F0E0108218C08B81282F30E03D8363
:101950002C838C819D81009751F02C813D81213019
:10196000310551F4E1E3F0E08FEF808305C0E1E35E
:10197000F0E0108201C0198289812D960FB6F8948B
:10198000DEBF0FBECDBFCF91DF910895DF93CF9320
:1019900000D000D00F92CDB7DEB78A836B8381E091
:1019A00089838A81843098F58A81282F30E03D83AD
:1019B0002C838C819D8181309105D1F02C813D81DA
:1019C000223031052CF48C819D81009761F020C07C
:1019D0002C813D812230310581F08C819D818330C5
:1019E000910581F015C0EBE3F0E08B81808310C09E
:1019F000E8E3F0E08B8180830BC0E5E3F0E08B81CE
:101A0000808306C0E2E3F0E08B81808301C019820D
:101A100089810F900F900F900F900F90CF91DF91D1
:101A20000895DF93CF9300D000D000D0CDB7DEB7BC
:101A30008A837C836B8381E089838A81843008F088
:101A40003FC08B819C810097D9F18A81282F30E09B
:101A50003E832D838D819E8181309105E1F02D8122
:101A60003E81223031052CF48D819E81009761F0FA
:101A700028C02D813E8122303105A1F08D819E81CB
:101A800083309105B1F01DC0E9E3F0E08081EB8186
:101A9000FC81808316C0E6E3F0E08081EB81FC816D
:101AA00080830FC0E3E3F0E08081EB81FC818083E1
:101AB00008C0E0E3F0E08081EB81FC81808301C01D
:101AC0001982898126960FB6F894DEBF0FBECDBF6E
:101AD000CF91DF910895DF93CF9300D000D00F9284
:101AE000CDB7DEB78A836B8381E089838A818430B6
:101AF00008F073C08B81883008F06FC08A81282F6E
:101B000030E03D832C838C819D818130910549F1AA
:101B10002C813D81223031052CF48C819D810097F0
:101B200061F05CC02C813D812230310571F18C81E6
:101B30009D8183309105E9F151C0ABE3B0E0EBE367
:101B4000F0E08081482F8B81282F30E081E090E009
:101B5000022E02C0880F991F0A94E2F784278C9303
:101B60003DC0A8E3B0E0E8E3F0E08081482F8B813E
:101B7000282F30E081E090E0022E02C0880F991FEC
:101B80000A94E2F784278C9329C0A5E3B0E0E5E34B
:101B9000F0E08081482F8B81282F30E081E090E0B9
:101BA000022E02C0880F991F0A94E2F784278C93B3
:101BB00015C0A2E3B0E0E2E3F0E08081482F8B8122
:101BC000282F30E081E090E0022E02C0880F991F9C
:101BD0000A94E2F784278C9301C0198289810F90BF
:101BE0000F900F900F900F90CF91DF910895DF939A
:101BF000CF93CDB7DEB7A7E2B0E0E7E2F0E08081B7
:101C00008F778C93A7E2B0E0E7E2F0E08081806418
:101C10008C93A7E2B0E0E7E2F0E080818F7D8C93C7
:101C2000A7E2B0E0E7E2F0E080818C93A6E2B0E0CA
:101C3000E6E2F0E0808180628C93A0E5B0E0E0E530
:101C4000F0E080818F778C93A0E5B0E0E0E5F0E0F4
:101C500080818F7B8C93A0E5B0E0E0E5F0E08081AF
:101C60008F7D8C93A6E2B0E0E6E2F0E08081877F92
:101C70008C93A6E2B0E0E6E2F0E0808187608C938E
:101C8000A6E2B0E0E6E2F0E0808180688C93CF913C
:101C9000DF910895DF93CF9300D0CDB7DEB71A82DE
:101CA0001982A6E2B0E0E6E2F0E0808180648C93E5
:101CB000E6E2F0E0808182958F70882F90E081705D
:101CC00090700097A9F3E4E2F0E08081282F30E0E3
:101CD000E5E2F0E08081882F90E0982F8827822B22
:101CE000932B9A838983A6E2B0E0E6E2F0E080815C
:101CF00080618C9389819A810F900F90CF91DF91B1
:101D00000895DF93CF9300D00F92CDB7DEB78B83CA
:101D10001A821982A7E2B0E0E7E2F0E08081807EDB
:101D20008C93A7E2B0E0E7E2F0E090818B81892B11
:101D30008C93A6E2B0E0E6E2F0E0808180648C93D0
:101D4000E6E2F0E0808182958F70882F90E08170CC
:101D500090700097A9F3E4E2F0E08081282F30E052
:101D6000E5E2F0E08081882F90E0982F8827822B91
:101D7000932B9A838983A6E2B0E0E6E2F0E08081CB
:101D800080618C9389819A810F900F900F90CF91F1
:101D9000DF910895DF93CF93CDB7DEB7A6E2B0E031
:101DA000E6E2F0E0808180688C93CF91DF91089526
:101DB000DF93CF93CDB7DEB7A6E2B0E0E6E2F0E086
:101DC00080818F778C93CF91DF910895DF93CF93AC
:101DD000CDB7DEB76C970FB6F894DEBF0FBECDBFA0
:101DE000E1E3F0E08FEF8083E7E3F0E08FEF8083C3
:101DF00080E090E0A0EAB1E4898F9A8FAB8FBC8F2E
:101E0000698D7A8D8B8D9C8D20E030E04AEF54E413
:101E10000E941F02DC01CB018D8B9E8BAF8BB88F94
:101E20006D897E898F89988D20E030E040E85FE3FE
:101E30000E94790388232CF481E090E09C8B8B8BAB
:101E40003FC06D897E898F89988D20E03FEF4FE7F5
:101E500057E40E94190318164CF5698D7A8D8B8D05
:101E60009C8D20E030E040E251E40E941F02DC0142
:101E7000CB01BC01CD010E944900DC01CB019C8B50
:101E80008B8B0FC088EC90E09A8B898B89899A891B
:101E90000197F1F79A8B898B8B899C8901979C8B91
:101EA0008B8B8B899C89009769F714C06D897E891B
:101EB0008F89988D0E944900DC01CB019C8B8B8B14
:101EC0008B899C89988B8F878F8598890197F1F7EB
:101ED000988B8F8788E30E94F40F8CE00E94F40FA8
:101EE00086E00E94F40F81E00E94F40F80E090E011
:101EF000A0E0B0E48B879C87AD87BE876B857C852F
:101F00008D859E8520E030E04AEF54E40E941F0258
:101F1000DC01CB018F839887A987BA876F81788589
:101F200089859A8520E030E040E85FE30E947903EC
:101F300088232CF481E090E09E838D833FC06F81E5
:101F4000788589859A8520E03FEF4FE757E40E9426
:101F5000190318164CF56B857C858D859E8520E0D0
:101F600030E040E251E40E941F02DC01CB01BC01E1
:101F7000CD010E944900DC01CB019E838D830FC0FF
:101F800088EC90E09C838B838B819C810197F1F797
:101F90009C838B838D819E8101979E838D838D8110
:101FA0009E81009769F714C06F81788589859A852D
:101FB0000E944900DC01CB019E838D838D819E812F
:101FC0009A83898389819A810197F1F79A8389831A
:101FD00080E80E94F40F6C960FB6F894DEBF0FBE37
:101FE000CDBFCF91DF910895DF93CF93CDB7DEB70B
:101FF0006D970FB6F894DEBF0FBECDBF8D8FE8E3AF
:10200000F0E08D8D8083A2E3B0E0E2E3F0E0808138
:102010008B7F8C93A2E3B0E0E2E3F0E08081877FE6
:102020008C93A2E3B0E0E2E3F0E0808180618C93E6
:1020300080E090E0A0E8BFE3898F9A8FAB8FBC8FE0
:10204000698D7A8D8B8D9C8D20E030E04AEF54E4D1
:102050000E941F02DC01CB018D8B9E8BAF8BB88F52
:102060006D897E898F89988D20E030E040E85FE3BC
:102070000E94790388232CF481E090E09C8B8B8B69
:102080003FC06D897E898F89988D20E03FEF4FE7B3
:1020900057E40E94190318164CF5698D7A8D8B8DC3
:1020A0009C8D20E030E040E251E40E941F02DC0100
:1020B000CB01BC01CD010E944900DC01CB019C8B0E
:1020C0008B8B0FC088EC90E09A8B898B89899A89D9
:1020D0000197F1F79A8B898B8B899C8901979C8B4F
:1020E0008B8B8B899C89009769F714C06D897E89D9
:1020F0008F89988D0E944900DC01CB019C8B8B8BD2
:102100008B899C89988B8F878F8598890197F1F7A8
:10211000988B8F87A2E3B0E0E2E3F0E080818F7ECE
:102120008C9380E090E0A0EAB0E48B879C87AD8739
:10213000BE876B857C858D859E8520E030E04AEFEB
:1021400054E40E941F02DC01CB018F839887A9878A
:10215000BA876F81788589859A8520E030E040E8EC
:102160005FE30E94790388232CF481E090E09E8352
:102170008D833FC06F81788589859A8520E03FEF08
:102180004FE757E40E94190318164CF56B857C85C0
:102190008D859E8520E030E040E251E40E941F02E0
:1021A000DC01CB01BC01CD010E944900DC01CB0167
:1021B0009E838D830FC088EC90E09C838B838B8102
:1021C0009C810197F1F79C838B838D819E81019780
:1021D0009E838D838D819E81009769F714C06F81E6
:1021E000788589859A850E944900DC01CB019E8310
:1021F0008D838D819E819A83898389819A810197BC
:10220000F1F79A8389836D960FB6F894DEBF0FBEFF
:10221000CDBFCF91DF910895DF93CF93CDB7DEB7D8
:102220006D970FB6F894DEBF0FBECDBF8D8FE8E37C
:10223000F0E08D8D8083A2E3B0E0E2E3F0E0808106
:1022400084608C93A2E3B0E0E2E3F0E08081877FDA
:102250008C93A2E3B0E0E2E3F0E0808180618C93B4
:1022600080E090E0A0E8BFE3898F9A8FAB8FBC8FAE
:10227000698D7A8D8B8D9C8D20E030E04AEF54E49F
:102280000E941F02DC01CB018D8B9E8BAF8BB88F20
:102290006D897E898F89988D20E030E040E85FE38A
:1022A0000E94790388232CF481E090E09C8B8B8B37
:1022B0003FC06D897E898F89988D20E03FEF4FE781
:1022C00057E40E94190318164CF5698D7A8D8B8D91
:1022D0009C8D20E030E040E251E40E941F02DC01CE
:1022E000CB01BC01CD010E944900DC01CB019C8BDC
:1022F0008B8B0FC088EC90E09A8B898B89899A89A7
:102300000197F1F79A8B898B8B899C8901979C8B1C
:102310008B8B8B899C89009769F714C06D897E89A6
:102320008F89988D0E944900DC01CB019C8B8B8B9F
:102330008B899C89988B8F878F8598890197F1F776
:10234000988B8F87A2E3B0E0E2E3F0E080818F7E9C
:102350008C9380E090E0A0EAB0E48B879C87AD8707
:10236000BE876B857C858D859E8520E030E04AEFB9
:1023700054E40E941F02DC01CB018F839887A98758
:10238000BA876F81788589859A8520E030E040E8BA
:102390005FE30E94790388232CF481E090E09E8320
:1023A0008D833FC06F81788589859A8520E03FEFD6
:1023B0004FE757E40E94190318164CF56B857C858E
:1023C0008D859E8520E030E040E251E40E941F02AE
:1023D000DC01CB01BC01CD010E944900DC01CB0135
:1023E0009E838D830FC088EC90E09C838B838B81D0
:1023F0009C810197F1F79C838B838D819E8101974E
:102400009E838D838D819E81009769F714C06F81B3
:10241000788589859A850E944900DC01CB019E83DD
:102420008D838D819E819A83898389819A81019789
:10243000F1F79A8389836D960FB6F894DEBF0FBECD
:10244000CDBFCF91DF910895DF93CF9300D00F924E
:10245000CDB7DEB79B838A83198219820EC089812A
:10246000282F30E08A819B81FC01E20FF31F8081DD
:102470000E940C1189818F5F89838981282F30E028
:102480008A819B81FC01E20FF31F8081882339F749
:102490000F900F900F90CF91DF910895DF93CF931E
:1024A00000D000D0CDB7DEB78B836C8380E8898302
:1024B00080EC8A838B81282F30E0CE010196FC01CD
:1024C000E20FF31F90818C81890F0E94F40F0F900F
:1024D0000F900F900F90CF91DF910895DF93CF93DE
:1024E00000D000D0CDB7DEB79B838A836C8319827E
:1024F0008C81882F90E00896880F991F880F991F6C
:10250000880F991F0E94F40F19820EC08981282F0D
:1025100030E08A819B81FC01E20FF31F80810E94E1
:102520000C1189818F5F89838981883078F30F90BE
:102530000F900F900F90CF91DF910895DF93CF937D
:10254000CDB7DEB781E00E94F40F80E80E94F40F5F
:10255000CF91DF910895DF93CF930F92CDB7DEB780
:10256000198233C08981882F90E0FC01EF5AFE4F19
:10257000908182E0692F41E00E9438098981882F8B
:1025800090E0FC01EF5AFE4F908182E0692F41E01C
:102590000E94620A8981882F90E0FC01EB5AFE4F6D
:1025A000908182E0692F40E00E9438098981882F5C
:1025B00090E0FC01EB5AFE4F908182E0692F41E0F0
:1025C0000E94620A89818F5F89838981843050F2F9
:1025D00081E00F90CF91DF910895DF93CF93CDB736
:1025E000DEB765970FB6F894DEBF0FBECDBF9D8BEB
:1025F0008C8B81E08A8B1B8A1F868C899D89009732
:1026000009F4F0C0EC89FD898FEF8083198AE5C059
:102610008989882F90E0FC01EF5AFE4F908182E07B
:10262000692F40E00E94620A188AC1C08889882FF9
:1026300090E0FC01EB5AFE4F90819E012D5E3F4FD2
:1026400082E0692FA9010E948C0B8B89882309F0F5
:10265000ABC080E090E0A0EAB1E48B879C87AD87B7
:10266000BE876B857C858D859E8520E030E04AE7BE
:1026700055E40E941F02DC01CB018F839887A98754
:10268000BA876F81788589859A8520E030E040E8B7
:102690005FE30E94790388232CF481E090E09E831D
:1026A0008D833FC06F81788589859A8520E03FEFD3
:1026B0004FE757E40E94190318164CF56B857C858B
:1026C0008D859E8520E030E040E251E40E941F02AB
:1026D000DC01CB01BC01CD010E944900DC01CB0132
:1026E0009E838D830FC080E991E09C838B838B81D7
:1026F0009C810197F1F79C838B838D819E8101974B
:102700009E838D838D819E81009769F714C06F81B0
:10271000788589859A850E944900DC01CB019E83DA
:102720008D838D819E819A83898389819A81019786
:10273000F1F79A8389838889882F90E0FC01EB5A0E
:10274000FE4F90819E012D5E3F4F82E0692FA901CF
:102750000E948C0B0FC08889882F90E0FC01EB5AF7
:10276000FE4F90819E012D5E3F4F82E0692FA901AF
:102770000E948C0B8B89882371F38989482F50E044
:102780008889282F30E0CA01880F991F880F991F68
:10279000820F931FFC01EF5BFE4F8081EC89FD8966
:1027A000808381E08F8707C088898F5F888B8889C5
:1027B000843008F43BCF8989882F90E0FC01EF5AE0
:1027C000FE4F908182E0692F41E00E94620A8F856E
:1027D000882349F489898F5F898B8989843008F43B
:1027E00017CF01C01A8A8A8965960FB6F894DEBFA2
:1027F0000FBECDBFCF91DF910895DF93CF93CDB7BB
:10280000DEB70E9437140E94811980E090E0CF91DA
:10281000DF910895DF93CF93CDB7DEB780915A0152
:10282000833018F00E942517FDCF0E94B81789E366
:1028300091E020E630E063E070E0A90120E030E0C4
:102840000E9444148DE391E029E630E063E070E0FB
:10285000A90121E030E00E94441489E391E02DE3D6
:1028600031E0B9010E947F15CF91DF910895DF9388
:10287000CF93CDB7DEB70E94E60E0E94AB120E9446
:10288000F70DCF91DF910895DF93CF93CDB7DEB7EA
:10289000A5970FB6F894DEBF0FBECDBF98A38F8F5C
:1028A00069A35BA34AA32CA31D8E8AA19BA10E94AE
:1028B000241280E090E0A8ECB2E4898F9A8FAB8F6D
:1028C000BC8F698D7A8D8B8D9C8D20E030E04AEF36
:1028D00054E40E941F02DC01CB018D8B9E8BAF8BD9
:1028E000B88F6D897E898F89988D20E030E040E82F
:1028F0005FE30E94790388232CF481E090E09C8BB5
:102900008B8B3FC06D897E898F89988D20E03FEF4A
:102910004FE757E40E94190318164CF5698D7A8D1C
:102920008B8D9C8D20E030E040E251E40E941F023C
:10293000DC01CB01BC01CD010E944900DC01CB01CF
:102940009C8B8B8B0FC088EC90E09A8B898B89894C
:102950009A890197F1F79A8B898B8B899C890197CA
:102960009C8B8B8B8B899C89009769F73EC06D8906
:102970007E898F89988D0E944900DC01CB019C8B58
:102980008B8B8B899C89988B8F878F8598890197F2
:10299000F1F7988B8F8729C0CE014E960E94ED12D9
:1029A000813019F58E8D8F3F01F18D8D282F30E00C
:1029B00081E090E0B9010E944E128CA1882319F4A5
:1029C0008E8D8DA302C08AE28DA38DA10E940C1171
:1029D0008D8D282F30E08F8D98A1FC01E20FF31F21
:1029E0008E8D80838D8D8F5F8D8F9D8D89A19817A2
:1029F00098F28D8D282F30E08F8D98A1FC01E20F89
:102A0000F31F108280E090E0A8E4B2E48B879C87FB
:102A1000AD87BE876B857C858D859E8520E030E007
:102A20004AEF54E40E941F02DC01CB018F83988798
:102A3000A987BA876F81788589859A8520E030E0FB
:102A400040E85FE30E94790388232CF481E090E062
:102A50009E838D833FC06F81788589859A8520E02C
:102A60003FEF4FE757E40E94190318164CF56B85AA
:102A70007C858D859E8520E030E040E251E40E9417
:102A80001F02DC01CB01BC01CD010E944900DC0129
:102A9000CB019E838D830FC088EC90E09C838B8359
:102AA0008B819C810197F1F79C838B838D819E8123
:102AB00001979E838D838D819E81009769F714C055
:102AC0006F81788589859A850E944900DC01CB0158
:102AD0009E838D838D819E819A83898389819A814A
:102AE0000197F1F79A8389830E949E12A5960FB6EB
:102AF000F894DEBF0FBECDBFCF91DF910895DF9375
:102B0000CF93CDB7DEB76C970FB6F894DEBF0FBE8C
:102B1000CDBF9A8F898F7C8F6B8F0E949E1288E722
:102B200090E09A8B898B8CE790E09C8B8B8B88E76D
:102B300090E09E8B8D8B8CE790E0988F8F8B188A1E
:102B40001F8638C08F85882F90E09C01220F331F8D
:102B5000CE010196820F931FFC0170962081318176
:102B6000898D9A8DB9010E94031A009701F58F850E
:102B7000882F90E09C01220F331FCE010196820F17
:102B8000931FFC017496208131818B8D9C8DB9013E
:102B90000E94031A009759F48F85882F90E00196C0
:102BA0000E946B160E94451881E0888B06C08F85B5
:102BB0008F5F8F878F85823028F28889882309F07C
:102BC0007FC080915A018F5F80935A0180E890E026
:102BD0000E94241280E090E0A8ECB2E48B879C87EE
:102BE000AD87BE876B857C858D859E8520E030E036
:102BF0004AEF54E40E941F02DC01CB018F839887C7
:102C0000A987BA876F81788589859A8520E030E029
:102C100040E85FE30E94790388232CF481E090E090
:102C20009E838D833FC06F81788589859A8520E05A
:102C30003FEF4FE757E40E94190318164CF56B85D8
:102C40007C858D859E8520E030E040E251E40E9445
:102C50001F02DC01CB01BC01CD010E944900DC0157
:102C6000CB019E838D830FC088EC90E09C838B8387
:102C70008B819C810197F1F79C838B838D819E8151
:102C800001979E838D838D819E81009769F714C083
:102C90006F81788589859A850E944900DC01CB0186
:102CA0009E838D838D819E819A83898389819A8178
:102CB0000197F1F79A8389830E949E120E940A1459
:102CC0000E949E126C960FB6F894DEBF0FBECDBF69
:102CD000CF91DF910895DF93CF93CDB7DEB76F9794
:102CE0000FB6F894DEBF0FBECDBF8F8F8DE890E09A
:102CF0000E94241281E090E060E070E00E944E1299
:102D00008F8D282F30E08DB79EB708970FB6F894B7
:102D10009EBF0FBE8DBFEDB7FEB73196CE010F96A9
:102D20009183808380E190E0938382838EE990E0B9
:102D300095838483378326830E942D1A8DB79EB78F
:102D400008960FB6F8949EBF0FBE8DBFCE010F96AA
:102D50000E94241280E090E0A8ECB2E48B879C876C
:102D6000AD87BE876B857C858D859E8520E030E0B4
:102D70004AEF54E40E941F02DC01CB018F83988745
:102D8000A987BA876F81788589859A8520E030E0A8
:102D900040E85FE30E94790388232CF481E090E00F
:102DA0009E838D833FC06F81788589859A8520E0D9
:102DB0003FEF4FE757E40E94190318164CF56B8557
:102DC0007C858D859E8520E030E040E251E40E94C4
:102DD0001F02DC01CB01BC01CD010E944900DC01D6
:102DE000CB019E838D830FC088EC90E09C838B8306
:102DF0008B819C810197F1F79C838B838D819E81D0
:102E000001979E838D838D819E81009769F714C001
:102E10006F81788589859A850E944900DC01CB0104
:102E20009E838D838D819E819A83898389819A81F6
:102E30000197F1F79A8389836F960FB6F894DEBFF6
:102E40000FBECDBFCF91DF910895DF93CF93CDB764
:102E5000DEB72E970FB6F894DEBF0FBECDBF8CEA5B
:102E600090E00E94241281E090E060E070E00E9417
:102E70004E1286EB90E00E94241280E090E0A8ECD5
:102E8000B2E48B879C87AD87BE876B857C858D85FB
:102E90009E8520E030E04AEF54E40E941F02DC01EE
:102EA000CB018F839887A987BA876F8178858985B9
:102EB0009A8520E030E040E85FE30E9479038823B0
:102EC0002CF481E090E09E838D833FC06F817885F4
:102ED00089859A8520E03FEF4FE757E40E94190368
:102EE00018164CF56B857C858D859E8520E030E03D
:102EF00040E251E40E941F02DC01CB01BC01CD0184
:102F00000E944900DC01CB019E838D830FC088ECB9
:102F100090E09C838B838B819C810197F1F79C834C
:102F20008B838D819E8101979E838D838D819E8170
:102F3000009769F714C06F81788589859A850E940A
:102F40004900DC01CB019E838D838D819E819A8314
:102F5000898389819A810197F1F79A8389832E96D3
:102F60000FB6F894DEBF0FBECDBFCF91DF910895AD
:102F7000DF93CF93CDB7DEB72E970FB6F894DEBFB1
:102F80000FBECDBF0E949E1287EC90E00E942412DB
:102F900080E090E0A8ECB2E48B879C87AD87BE8789
:102FA0006B857C858D859E8520E030E04AEF54E47A
:102FB0000E941F02DC01CB018F839887A987BA8703
:102FC0006F81788589859A8520E030E040E85FE36D
:102FD0000E94790388232CF481E090E09E838D8306
:102FE0003FC06F81788589859A8520E03FEF4FE764
:102FF00057E40E94190318164CF56B857C858D8566
:103000009E8520E030E040E251E40E941F02DC0196
:10301000CB01BC01CD010E944900DC01CB019E83A4
:103020008D830FC088EC90E09C838B838B819C8187
:103030000197F1F79C838B838D819E8101979E83FD
:103040008D838D819E81009769F714C06F8178858B
:1030500089859A850E944900DC01CB019E838D837E
:103060008D819E819A83898389819A810197F1F765
:103070009A8389830E949E122E960FB6F894DEBF23
:103080000FBECDBFCF91DF910895DF93CF9300D0D6
:1030900000D0CDB7DEB70E949E128FEC90E00E9468
:1030A000241288ED90E00E94241281E090E060E01C
:1030B00070E00E944E1281EE90E00E9424128AEE8F
:1030C00090E00E942412198234C0CE0102960E9420
:1030D000ED12813071F58A818F3F59F18A81282F55
:1030E00030E03C832B838B819C8182339105C9F036
:1030F0002B813C812333310534F48B819C818133D6
:10310000910561F016C02B813C812333310561F0BC
:103110008B819C818433910551F00BC00E948119F1
:1031200008C00E940C1905C00E94A51802C00E9488
:103130000A148981882349F20E949E120F900F90F1
:103140000F900F90CF91DF910895DF93CF9300D030
:1031500000D0CDB7DEB70E949E1283EF90E00E94B0
:1031600024128CEF90E00E94241281E090E060E055
:1031700070E00E944E1282E091E00E9424128AE0E8
:1031800091E00E94241219823CC0CE0102960E9456
:10319000ED128130B1F58A818F3F99F18A81282F14
:1031A00030E03C832B838B819C8182339105D9F065
:1031B0002B813C812333310534F48B819C81813315
:1031C000910561F01EC02B813C812333310581F0D4
:1031D0008B819C818433910581F013C083E463E08B
:1031E0000E941B080EC083E467E00E941B0809C010
:1031F00081E461E00E941B0804C081E089830E9491
:1032000045188981882309F4C0CF0F900F900F9043
:103210000F90CF91DF910895DF93CF9300D000D02E
:10322000CDB7DEB70E949E1281E191E00E94241288
:103230008AE191E00E94241281E090E060E070E079
:103240000E944E1281E291E00E9424128AE091E0F5
:103250000E94241219824AC0CE0102960E94ED12E9
:10326000813009F043C08A818F3F09F43FC08A81D1
:10327000282F30E03C832B838B819C818233910506
:1032800009F12B813C812333310534F48B819C81FE
:103290008133910561F02AC02B813C8123333105B4
:1032A000E1F08B819C8184339105E1F01FC083E4C0
:1032B00065E041E00E94280783E466E040E00E9468
:1032C000280714C083E466E041E00E94280783E4F5
:1032D00065E040E00E94280709C083E464E00E94A2
:1032E0001B0804C081E089830E94451889818823D6
:1032F00009F4B2CF0F900F900F900F90CF91DF9104
:103300000895DF93CF93CDB7DEB72E970FB6F8941D
:10331000DEBF0FBECDBF0E949E121B8281E090E0F7
:1033200060E070E00E944E128AE291E00E94241256
:1033300027C082E090E00E94810E9A838983898170
:103340009A819E012C5F3F4FB9014AE050E00E94F4
:103350000C1ACE0104960E9424120E949E12CE01E5
:103360000E960E94ED12813059F48E858F3F41F008
:103370008E85882F90E08133910511F40E944518C5
:103380008B818823B1F22E960FB6F894DEBF0FBE64
:10339000CDBFCF91DF9108952F923F924F925F92D0
:1033A0006F927F928F929F92AF92BF92CF92DF9255
:1033B000EF92FF920F931F93CF93DF93CDB7DEB7BA
:1033C000CA1BDB0B0FB6F894DEBF0FBECDBF09944E
:1033D0002A88398848885F846E847D848C849B84A5
:1033E000AA84B984C884DF80EE80FD800C811B81B3
:1033F000AA81B981CE0FD11D0FB6F894DEBF0FBEE2
:10340000CDBFED010895FB01DC018D910190801984
:103410000110D9F3990B0895FB019F01E894423004
:10342000C4F04532B4F44A3029F497FB1EF4909569
:1034300081959F4F642F77270E94EB1C805D8A3314
:103440000CF0895D8193CB010097A1F716F45DE242
:1034500051931082C9010C94511CAEE0B0E0E3E33B
:10346000FAE10C94DA190D891E898F89988D97FFDE
:1034700002C080E090E801979E838D831A830983C0
:1034800086E08C839E01255E3F4FCE010196698DBB
:103490007A8DA9010E945E1A4D815E8157FD0AC096
:1034A0002F813885421753070CF49A01020F131F1E
:1034B000F80110822E96E4E00C94F619ABE0B0E02F
:1034C000E4E6FAE10C94CC193C012B015A01FC0111
:1034D00017821682838181FD03C06FEF7FEFC6C123
:1034E0009AE0892E1E010894211C311CF3012381CE
:1034F000F20123FD859123FF81912F01882309F497
:10350000B2C1853239F423FD859123FF81912F01CA
:10351000853229F490E0B3010E94611CE7CF982F17
:10352000FF24EE249924FFE1FF15D0F09B3269F0CF
:103530009C3228F4903259F0933291F40EC09D32AF
:1035400049F0903369F441E024C052E0F52A84E068
:10355000F82A28C098E0F92A25C0E0E1FE2A22C016
:10356000F7FC29C0892F80538A3070F4F6FE05C01D
:10357000989C902C1124980E15C0E89CE02C1124E6
:10358000E80EF0E2FF2A0EC09E3229F4F6FC6BC171
:1035900040E4F42A07C09C3619F450E8F52A02C02A
:1035A000983649F4F20123FD959123FF91912F0163
:1035B000992309F0B8CF892F8554833018F08052B1
:1035C000833038F444E050E0A40EB51E5FE3598325
:1035D0000FC0933631F0933779F0933509F056C028
:1035E00020C0F5018081898342E050E0A40EB51E21
:1035F000610101E010E012C0F501C080D180F6FC4D
:1036000003C06FEF7FEF02C0692D70E042E050E031
:10361000A40EB51EC6010E94461C8C015FE7F52270
:1036200014C0F501C080D180F6FC03C06FEF7FEFBE
:1036300002C0692D70E042E050E0A40EB51EC60144
:103640000E943B1C8C0150E8F52AF3FE07C01AC00B
:1036500080E290E0B3010E94611CEA948E2D90E01C
:1036600008171907A8F30EC0F601F7FC8591F7FEBD
:1036700081916F0190E0B3010E94611CE110EA9416
:10368000015010400115110579F7EAC0943611F088
:10369000993669F5F7FE08C0F50120813181428134
:1036A000538184E090E00AC0F501808191819C0102
:1036B000442737FD4095542F82E090E0A80EB91EB4
:1036C0009FE6F92257FF09C0509540953095219506
:1036D0003F4F4F4F5F4FE0E8FE2ACA01B901A101F9
:1036E0002AE030E00E948D1CD82ED21840C09537B9
:1036F00029F41F2D1F7E2AE030E01DC01F2D197FE9
:103700009F3661F0903720F4983509F0ACC00FC0B7
:10371000903739F0983709F0A6C004C028E030E0AF
:103720000AC0106114FD146020E130E004C014FDF3
:10373000166020E132E017FF08C0F5016081718159
:103740008281938144E050E008C0F501808191813D
:10375000BC0180E090E042E050E0A40EB51EA10163
:103760000E948D1CD82ED2188FE7F82EF122F6FE7B
:103770000BC05EEFF522D91438F4F4FE07C0F2FC5A
:1037800005C08FEEF82202C01D2D01C0192DF4FED8
:103790000DC0FE01ED0DF11D8081803319F499EE0D
:1037A000F92208C01F5FF2FE05C003C08F2D867886
:1037B00009F01F5F0F2DF3FC14C0F0FE0FC01E15A3
:1037C00010F09D2C0BC09D2C9E0C911A1E2D06C036
:1037D00080E290E0B3010E94611C1F5F1E15C0F3E0
:1037E00004C01E1510F4E11A01C0EE2404FF0FC03E
:1037F00080E390E0B3010E94611C02FF1DC001FD47
:1038000003C088E790E00EC088E590E00BC0802FF1
:10381000867891F001FF02C08BE201C080E2F7FCE4
:103820008DE290E0B3010E94611C06C080E390E04D
:10383000B3010E94611C9A94D914C0F3DA94F10187
:10384000ED0DF11D808190E0B3010E94611CDD202F
:10385000A9F706C080E290E0B3010E94611CEA94DF
:10386000EE20C1F743CEF30166817781CB012B9621
:10387000E2E10C94E819FC010590615070400110E0
:10388000D8F7809590958E0F9F1F0895FC01615089
:10389000704001900110D8F7809590958E0F9F1F72
:1038A0000895DC01FC01672F71917723E1F73297CE
:1038B00004C07C916D9370836291AE17BF07C8F30B
:1038C00008950F931F93CF93DF938C01EB018B81AE
:1038D00081FF1BC082FF0DC02E813F818C819D81A5
:1038E0002817390764F4E881F9810193F983E883A3
:1038F00006C0E885F985802F0995892B31F48E81E2
:103900009F8101969F838E8302C00FEF1FEFC80136
:10391000DF91CF911F910F910895FA01AA272830C6
:1039200051F1203181F1E8946F936E7F6E5F7F4F8C
:103930008F4F9F4FAF4FB1E03ED0B4E03CD0670F08
:10394000781F891F9A1FA11D680F791F8A1F911D5B
:10395000A11D6A0F711D811D911DA11D20D009F4AB
:1039600068943F912AE0269F11243019305D3193ED
:10397000DEF6CF010895462F4770405D4193B3E0D6
:103980000FD0C9F7F6CF462F4F70405D4A3318F07D
:10399000495D31FD4052419302D0A9F7EACFB4E02E
:1039A000A6959795879577956795BA95C9F70097E6
:1039B0006105710508959B01AC010A2E0694579587
:1039C000479537952795BA95C9F7620F731F841FDE
:1039D000951FA01D0895AA1BBB1B51E107C0AA1F7C
:1039E000BB1FA617B70710F0A61BB70B881F991FA0
:1039F0005A95A9F780959095BC01CD010895F8944A
:023A0000FFCFF6
:103A0200456E74657220494400456E74657220509B
:103A1200617373776F726400313131003232320078
:103A22004C6F67696E204661696C6564004C6F6714
:103A3200696E205375636365737366756C004865C0
:103A42006C6C6F2055736572202564004D6178207F
:103A52004C6F67696E00417474656D7074732052A7
:103A62006561636865640057656C636F6D650031FD
:103A72003A54656D702C2000323A4D6F746F727338
:103A820000333A4C4544732C2000343A4C6F676F34
:103A9200757400313A477265656E2C00323A526590
:103AA2006400333A426C75652C00343A4261636BB0
:103AB20000313A46414E2B2C2000323A46414E2DDF
:103AC20000333A4D6F746F722C00313A6261636B4E
:103AD20000000000000000000000000000000000E4
:103AE200003738392F3435362A3132332D43303DC1
:0A3AF2002B00010203040506070083
:00000001FF
